0184010010999992015010100004+70933-008667FM-12+000999999V0200401N01701000301CN000100199-00631-00741098801ADDAA106002031AY171021AY231021GF109991999999999999999999MA1999999098681MD1110121+9999MW1731OD139902601999REMSYN07001001 11/01 90417 11063 21074 39868 49880 51012 60021 77373 333 91126=
0089010010999992015010103004+70933-008667FM-12+000999999V0200501N014019999999N999999999-00671-00791098961ADDMA1999999098841MD1990151+9999REMSYN04801001 46/// /0514 11067 21079 39884 49896 50015=
0309010010999992015010106004+70933-008667FM-12+000999999V0200501N009019999999N003000199-00631-00761099031ADDAA112002031AA224003131AJ199991999999999AY171021AY231021GA1051+008001061GA2999+999999051GE19MSL   +99999+99999GF106991051999008001999999IA1289KA1240N-00691MA1999999098911MD1310081+9999MW1711OD139902301999REMSYN09401001 11530 60509 11063 21076 39891 49903 53008 60022 77173 85520 333 21069 48999 70031 91123=
0187010010999992015010109004+70933-008667FM-12+000999999V0200501N008019999999N005000199-00581-00771099031ADDAY171021AY231021GA1061+004501061GE19MSL   +99999+99999GF106991061999004501999999MA1999999098911MD1410001+9999MW1711REMSYN06001001 41450 60508 11058 21077 39891 49903 54000 77173 86500=
0248010010999992015010112004+70933-008667FM-12+000999999V0200601N007019999999N010000199-00571-00781098951ADDAA106000131AY181021AY231021GA1061+004501081GE19MSL   +99999+99999GF106991061999004501999999MA1999999098831MD1710071+9999MW1851OD139901401999SA1-0021REMSYN08801001 11460 60607 11057 21078 39883 49895 57007 69911 78583 86800 222// 01002 333 91114=
0187010010999992015010115004+70933-008667FM-12+000999999V0200401N006019999999N020000199-00561-00881098901ADDAY181021AY221021GA1081+004501061GE19MSL   +99999+99999GF108991081999004501999999MA1999999098781MD1710061+9999MW1021REMSYN06001001 41470 80406 11056 21088 39878 49890 57006 70282 885//=
0247010010999992015010118004+70933-008667FM-12+000999999V0200501N008019999999N015000199-00561-00841098751ADDAA112000131AY181021AY231021GA1071+004501061GE19MSL   +99999+99999GF107991071999004501999999KA1120M-00541MA1999999098631MD1610151+9999MW1021OD139901301999REMSYN08201001 11465 70508 11056 21084 39863 49875 56015 69912 70283 875// 333 11054 91113=
0089010010999992015010121004+70933-008667FM-12+000999999V0200301N009019999999N999999999-00641-00841098681ADDMA1999999098561MD1710061+9999REMSYN04801001 46/// /0309 11064 21084 39856 49868 57006=
0228010010999992015010200004+70933-008667FM-12+000999999V0200301N013019999999N005000199-00711-00951098571ADDAA106000091AY131021AY221021GA1071+004501061GE19MSL   +99999+99999GF107991071999004501999999MA1999999098451MD1810111+9999MW1381OD139901701999REMSYN07601001 11450 70313 11071 21095 39845 49857 58011 60001 73832 875// 333 91117=
0089010010999992015010203004+70933-008667FM-12+000999999V0200301N010019999999N999999999-00571-00851098531ADDMA1999999098411MD1710041+9999REMSYN04801001 46/// /0310 11057 21085 39841 49853 57004=
0276010010999992015010206004+70933-008667FM-12+000999999V0200501N011019999999N003000199-00481-00691098531ADDAA106000131AJ199991999999999AY171021AY231021GA1081+004501061GE19MSL   +99999+99999GF108991081999004501999999IA1229KA1240N-00711MA1999999098411MD1410001+9999MW1711OD139901901999REMSYN08801001 11430 80511 11048 21069 39841 49853 54000 69911 77173 885// 333 21071 46999 91119=
0187010010999992015010209004+70933-008667FM-12+000999999V0200301N010019999999N002000199-00491-00651098721ADDAY171021AY231021GA1081+004501061GE19MSL   +99999+99999GF108991081999004501999999MA1999999098601MD1310191+9999MW1711REMSYN06001001 41420 80310 11049 21065 39860 49872 53019 77173 885//=
0248010010999992015010212004+70933-008667FM-12+000999999V0200301N010019999999N002000199-00541-00731098921ADDAA106002031AY171021AY231021GA1071+004501061GE19MSL   +99999+99999GF107991071999004501999999MA1999999098801MD1110201+9999MW1711OD139901701999SA1-0011REMSYN08801001 11420 70310 11054 21073 39880 49892 51020 60021 77173 875// 222// 01001 333 91117=
0203010010999992015010215004+70933-008667FM-12+000999999V0200301N009019999999N002000199-00581-00791099081ADDAY171021AY231021GA1061+004501061GA2999+999999051GE19MSL   +99999+99999GF107991061999004501999999MA1999999098961MD1310161+9999MW1701REMSYN06001001 41420 70309 11058 21079 39896 49908 53016 77073 8652/=
0247010010999992015010218004+70933-008667FM-12+000999999V0200301N010019999999N004000199-00561-00881099191ADDAA112003031AY171021AY231021GA1081+008001081GE19MSL   +99999+99999GF108991081999008001999999KA1120M-00431MA1999999099071MD1210111+9999MW1701OD139901701999REMSYN08201001 11540 80310 11056 21088 39907 49919 52011 60032 77073 888// 333 11043 91117=
0089010010999992015010221004+70933-008667FM-12+000999999V0200401N010019999999N999999999-00591-00781099331ADDMA1999999099211MD1110141+9999REMSYN04801001 46/// /0410 11059 21078 39921 49933 51014=
0184010010999992015010300004+70933-008667FM-12+000999999V0200301N01101001201CN000500199-00571-00851099461ADDAA106000131AY131021AY231021GF109991999999999999999999MA1999999099341MD1310131+9999MW1391OD139901801999REMSYN07001001 11/05 90311 11057 21085 39934 49946 53013 69911 73933 333 91118=
0089010010999992015010303004+70933-008667FM-12+000999999V0200301N014019999999N999999999-00631-00871099581ADDMA1999999099461MD1110121+9999REMSYN04801001 46/// /0314 11063 21087 39946 49958 51012=
0249010010999992015010306004+70933-008667FM-12+000999999V0200401N01501001201CN000500199-00601-00821099621ADDAA112000231AA224002731AJ199991999999999AY171021AY231021GF109991999999999999999999IA1289KA1240N-00651MA1999999099501MD1310041+9999MW1391OD139902901999REMSYN08801001 11/05 90415 11060 21082 39950 49962 53004 69922 73973 333 21065 48999 70027 91129=
0187010010999992015010309004+70933-008667FM-12+000999999V0200301N010019999999N002000199-00641-00991099841ADDAY131021AY221021GA1081+004501061GE19MSL   +99999+99999GF108991081999004501999999MA1999999099721MD1310221+9999MW1381REMSYN06001001 41420 80310 11064 21099 39972 49984 53022 73832 885//=
0248010010999992015010312004+70933-008667FM-12+000999999V0200301N011019999999N003000199-00671-00951099851ADDAA106000091AY131021AY221021GA1081+008001061GE19MSL   +99999+99999GF108991081999008001999999MA1999999099731MD1310021+9999MW1381OD139902401999SA1-0031REMSYN08801001 11530 80311 11067 21095 39973 49985 53002 60001 73832 885// 222// 01003 333 91124=
0187010010999992015010315004+70933-008667FM-12+000999999V0200301N008019999999N003000199-00571-00991099941ADDAY131021AY221021GA1081+008001061GE19MSL   +99999+99999GF108991081999008001999999MA1999999099821MD1990081+9999MW1361REMSYN06001001 41530 80308 11057 21099 39982 49994 50008 73632 885//=
0247010010999992015010318004+70933-008667FM-12+000999999V0200301N010019999999N004000199-00591-00981099951ADDAA112000131AY181021AY231021GA1081+008001061GE19MSL   +99999+99999GF108991081999008001999999KA1120M-00541MA1999999099831MD1990011+9999MW1361OD139902201999REMSYN08201001 11540 80310 11059 21098 39983 49995 50001 69912 73683 885// 333 11054 91122=
0089010010999992015010321004+70933-008667FM-12+000999999V0200201N013019999999N999999999-00581-00891099961ADDMA1999999099841MD1210011+9999REMSYN04801001 46/// /0213 11058 21089 39984 49996 52001=
0228010010999992015010400004+70933-008667FM-12+000999999V0200201N012019999999N003000199-00501-00701100041ADDAA106000091AY131021AY221021GA1081+004501071GE19MSL   +99999+99999GF108991081999004501999999MA1999999099921MD1310081+9999MW1361OD139902401999REMSYN07601001 11430 80212 11050 21070 39992 40004 53008 60001 73632 886// 333 91124=
0089010010999992015010403004+70933-008667FM-12+000999999V0200201N013019999999N999999999-00441-00601100141ADDMA1999999100021MD1210111+9999REMSYN04801001 46/// /0213 11044 21060 30002 40014 52011=
0293010010999992015010406004+70933-008667FM-12+000999999V0200201N016019999999N002000199-00421-00611100231ADDAA112000531AA224000631AJ199991999999999AY181021AY231021GA1081+004501071GE19MSL   +99999+99999GF108991081999004501999999IA1289KA1240N-00631MA1999999100111MD1110081+9999MW1381OD139902701999REMSYN09401001 11420 80216 11042 21061 30011 40023 51008 69952 73883 886// 333 21063 48999 70006 91127=
0187010010999992015010409004+70933-008667FM-12+000999999V0200201N016019999999N004000199-00391-00671100441ADDAY131021AY221021GA1061+004501061GE19MSL   +99999+99999GF106991061999004501999999MA1999999100321MD1110211+9999MW1361REMSYN06001001 41440 60216 11039 21067 30032 40044 51021 73632 86500=
0248010010999992015010412004+70933-008667FM-12+000999999V0200101N019019999999N005000199-00371-00611100531ADDAA106000091AY131021AY221021GA1061+004501061GE19MSL   +99999+99999GF106991061999004501999999MA1999999100411MD1110101+9999MW1361OD139903001999SA1-0041REMSYN08801001 11450 60119 11037 21061 30041 40053 51010 60001 73632 86500 222// 01004 333 91130=
0187010010999992015010415004+70933-008667FM-12+000999999V0203601N013019999999N008000199-00311-00511100851ADDAY131021AY221021GA1071+004501061GE19MSL   +99999+99999GF107991071999004501999999MA1999999100731MD1310311+9999MW1101REMSYN06001001 41458 73613 11031 21051 30073 40085 53031 71032 875//=
0247010010999992015010418004+70933-008667FM-12+000999999V0200101N012019999999N025000199-00301-00501100891ADDAA112000091AY131021AY221021GA1051+004501061GE19MSL   +99999+99999GF105991051999004501999999KA1120M-00301MA1999999100771MD1310051+9999MW1021OD139902501999REMSYN08201001 11475 50112 11030 21050 30077 40089 53005 60002 70232 85500 333 11030 91125=
0089010010999992015010421004+70933-008667FM-12+000999999V0203601N005019999999N999999999-00261-00411101111ADDMA1999999100991MD1110211+9999REMSYN04801001 46/// /3605 11026 21041 30099 40111 51021=
0244010010999992015010500004+70933-008667FM-12+000999999V0200801N001019999999N010000199-00231-00371101041ADDAA106000091AY131021AY221021GA1061+004501061GA2999+999999041GE19MSL   +99999+99999GF107991061999004501999999MA1999999100921MD1810071+9999MW1031OD139901401999REMSYN07601001 11460 70801 11023 21037 30092 40104 58007 60001 70332 8651/ 333 91114=
0089010010999992015010503004+70933-008667FM-12+000999999V0201801N008019999999N999999999-00051-00161100951ADDMA1999999100831MD1610091+9999REMSYN04801001 46/// /1808 11005 21016 30083 40095 56009=
0293010010999992015010506004+70933-008667FM-12+000999999V0201601N010019999999N010000199+00101-00041100601ADDAA112000091AA224000091AJ199991999999999AY131021AY221021GA1081+004501071GE19MSL   +99999+99999GF108991081999004501999999IA1289KA1240N-00301MA1999999100481MD1810351+9999MW1101OD139901301999REMSYN09401001 11460 81610 10010 21004 30048 40060 58035 60002 71032 886// 333 21030 48999 70000 91113=
0187010010999992015010509004+70933-008667FM-12+000999999V0201801N012019999999N010000199+00181-00021100281ADDAY121021AY221021GA1081+004501071GE19MSL   +99999+99999GF108991081999004501999999MA1999999100161MD1810321+9999MW1101REMSYN06001001 41460 81812 10018 21002 30016 40028 58032 71022 886//=
0248010010999992015010512004+70933-008667FM-12+000999999V0201801N015019999999N005000199+00141-00031099771ADDAA106000021AY161021AY241021GA1081+004501071GE19MSL   +99999+99999GF108991081999004501999999MA1999999099651MD1810511+9999MW1601OD139902201999SA1+0001REMSYN08801001 11450 81815 10014 21003 39965 49977 58051 69901 76064 886// 222// 00000 333 91122=
0187010010999992015010515004+70933-008667FM-12+000999999V0201701N014019999999N002500199+00181+00091099101ADDAY171021AY261021GA1081+002501071GE19MSL   +99999+99999GF108991081999002501999999MA1999999098981MD1810661+9999MW1631REMSYN06001001 41325 81714 10018 20009 39898 49910 58066 76376 886//=
0247010010999992015010518004+70933-008667FM-12+000999999V0202001N009019999999N001000199+00291+00221098281ADDAA112002031AY161021AY241021GA1081+001501071GE19MSL   +99999+99999GF108991081999001501999999KA1120M+00311MA1999999098171MD1810811+9999MW1631OD139902101999REMSYN08201001 11210 82009 10029 20022 39817 49828 58081 60022 76364 886// 333 10031 91121=
0089010010999992015010521004+70933-008667FM-12+000999999V0203101N007019999999N999999999+00301-00141098142ADDMA1999999098032MD1610141+9999REMSYN04801001 46/// /3107 10030 21014 39803 49814 56014=
0089010010999992015010522004+70933-008667FM-12+000999999V0203201N013019999999N999999999+00271-00111098231ADDMA1999999098121MD1310071+9999REMSYN04801001 46/// /3213 10027 21011 39812 49823 53007=
0089010010999992015010523004+70933-008667FM-12+000999999V0202901N009019999999N999999999+00191-00101098261ADDMA1999999098151MD1310091+9999REMSYN04801001 46/// /2909 10019 21010 39815 49826 53009=
0244010010999992015010600004+70933-008667FM-12+000999999V0202801N007019999999N020000199+00141-00121098301ADDAA106009031AY161021AY241021GA1061+004501061GA2999+999999041GE19MSL   +99999+99999GF108991061999004501999999MA1999999098191MD1110161+9999MW1021OD139902001999REMSYN07601001 11470 82807 10014 21012 39819 49830 51016 60091 70264 86510 333 91120=
0089010010999992015010601004+70933-008667FM-12+000999999V0202701N006019999999N999999999+00131-00081098431ADDMA1999999098321MD1310211+9999REMSYN04801001 46/// /2706 10013 21008 39832 49843 53021=
0089010010999992015010602004+70933-008667FM-12+000999999V0202601N006019999999N999999999+00131-00061098491ADDMA1999999098381MD1310231+9999REMSYN04801001 46/// /2606 10013 21006 39838 49849 53023=
0089010010999992015010603004+70933-008667FM-12+000999999V0202401N005019999999N999999999+00111+00001098511ADDMA1999999098401MD1110211+9999REMSYN04801001 46/// /2405 10011 21000 39840 49851 51021=
0089010010999992015010604004+70933-008667FM-12+000999999V0202201N005019999999N999999999+00091-00011098511ADDMA1999999098391MD1110071+9999REMSYN04801001 46/// /2205 10009 21001 39839 49851 51007=
0089010010999992015010605004+70933-008667FM-12+000999999V0202301N004019999999N999999999+00081-00011098461ADDMA1999999098341MD1810041+9999REMSYN04801001 46/// /2304 10008 21001 39834 49846 58004=
0293010010999992015010606004+70933-008667FM-12+000999999V0202001N002019999999N004000199+00081-00011098391ADDAA112009031AA224010831AJ199991999999999AY161021AY241021GA1081+002501071GE19MSL   +99999+99999GF108991081999002501999999IA1249KA1240N+00081MA1999999098281MD1810121+9999MW1101OD139901101999REMSYN09401001 11340 82002 10008 21001 39828 49839 58012 60092 71064 886// 333 20008 44999 70108 91111=
0089010010999992015010607004+70933-008667FM-12+000999999V0202301N001019999999N999999999+00071-00021098421ADDMA1999999098301MD1510081+9999REMSYN04801001 46/// /2301 10007 21002 39830 49842 55008=
0089010010999992015010608004+70933-008667FM-12+000999999V0202201N003019999999N999999999+00051-00041098451ADDMA1999999098331MD1510011+9999REMSYN04801001 46/// /2203 10005 21004 39833 49845 55001=
0143010010999992015010609004+70933-008667FM-12+000999999V0202201N00201000601CN000200199+00021-00051098471ADDAY181021AY241021GF109991999999999999999999MA1999999098351MD1210071+9999MW1861REMSYN05401001 41/02 92202 10002 21005 39835 49847 52007 78684=
0089010010999992015010610004+70933-008667FM-12+000999999V0202601N005019999999N999999999+00121+00051098501ADDMA1999999098391MD1310091+9999REMSYN04801001 46/// /2605 10012 20005 39839 49850 53009=
0089010010999992015010611004+70933-008667FM-12+000999999V0202601N009019999999N999999999+00141-00011098541ADDMA1999999098431MD1310111+9999REMSYN04801001 46/// /2609 10014 21001 39843 49854 53011=
0264010010999992015010612004+70933-008667FM-12+000999999V0202601N010019999999N020000199+00141-00111098601ADDAA106003031AY181021AY241021GA1031+004501071GA2999+999999031GE19MSL   +99999+99999GF105991031999004501999999MA1999999098491MD1310141+9999MW1011OD139901301999SA1+0051REMSYN08801001 11470 52610 10014 21011 39849 49860 53014 60031 70184 83630 222// 00005 333 91113=
0089010010999992015010613004+70933-008667FM-12+000999999V0202501N008019999999N999999999+00121-00011098651ADDMA1999999098531MD1210141+9999REMSYN04801001 46/// /2508 10012 21001 39853 49865 52014=
0089010010999992015010614004+70933-008667FM-12+000999999V0202501N006019999999N999999999+00121-00031098711ADDMA1999999098591MD1210161+9999REMSYN04801001 46/// /2506 10012 21003 39859 49871 52016=
0203010010999992015010615004+70933-008667FM-12+000999999V0202201N008019999999N010000199+00101-00021098721ADDAY181021AY221021GA1051+004501071GA2999+999999031GE19MSL   +99999+99999GF106991051999004501999999MA1999999098601MD1990111+9999MW1031REMSYN06001001 41460 62208 10010 21002 39860 49872 50011 70382 85630=
0089010010999992015010616004+70933-008667FM-12+000999999V0202501N006019999999N999999999+00081-00031098751ADDMA1999999098631MD1110101+9999REMSYN04801001 46/// /2506 10008 21003 39863 49875 51010=
0089010010999992015010617004+70933-008667FM-12+000999999V0202601N005019999999N999999999+00091-00031098761ADDMA1999999098641MD1210061+9999REMSYN04801001 46/// /2605 10009 21003 39864 49876 52006=
0263010010999992015010618004+70933-008667FM-12+000999999V0202501N006019999999N020000199+00091-00051098781ADDAA112003031AY181021AY221021GA1031+004501071GA2999+999999031GE19MSL   +99999+99999GF104991031999004501999999KA1120M+00151MA1999999098661MD1210061+9999MW1011OD139901401999REMSYN08201001 11470 42506 10009 21005 39866 49878 52006 60032 70182 83630 333 10015 91114=
0089010010999992015010619004+70933-008667FM-12+000999999V0202401N009019999999N999999999+00101-00041098781ADDMA1999999098661MD1210031+9999REMSYN04801001 46/// /2409 10010 21004 39866 49878 52003=
0108010010999992015010620004+70933-008667FM-12+000999999V0202201N010019999999N999999999+00121-00021098771ADDMA1999999098651MD1290014+9999REMSYN04801001 46/// /2210 10012 21002 39865 49877 54001=EQDQ01.1    3APC3  
0089010010999992015010621004+70933-008667FM-12+000999999V0202301N010019999999N999999999+00111-00051098791ADDMA1999999098671MD1210011+9999REMSYN04801001 46/// /2310 10011 21005 39867 49879 52001=
0089010010999992015010622004+70933-008667FM-12+000999999V0202401N008019999999N999999999+00091-00051098811ADDMA1999999098691MD1210031+9999REMSYN04801001 46/// /2408 10009 21005 39869 49881 52003=
0089010010999992015010623004+70933-008667FM-12+000999999V0202401N009019999999N999999999+00091-00081098831ADDMA1999999098711MD1210061+9999REMSYN04801001 46/// /2409 10009 21008 39871 49883 52006=
0228010010999992015010700004+70933-008667FM-12+000999999V0202601N006019999999N020000199+00091-00081098891ADDAA106000091AY121021AY221021GA1061+004501071GE19MSL   +99999+99999GF106991061999004501999999MA1999999098771MD1310101+9999MW1031OD139901201999REMSYN07601001 11470 62606 10009 21008 39877 49889 53010 60001 70322 86600 333 91112=
0089010010999992015010701004+70933-008667FM-12+000999999V0202401N006019999999N999999999+00091-00041098901ADDMA1999999098781MD1210091+9999REMSYN04801001 46/// /2406 10009 21004 39878 49890 52009=
0089010010999992015010702004+70933-008667FM-12+000999999V0202301N005019999999N999999999+00071-00051098901ADDMA1999999098781MD1110071+9999REMSYN04801001 46/// /2305 10007 21005 39878 49890 51007=
0089010010999992015010703004+70933-008667FM-12+000999999V0202301N007019999999N999999999+00061-00081098841ADDMA1999999098721MD1810051+9999REMSYN04801001 46/// /2307 10006 21008 39872 49884 58005=
0089010010999992015010704004+70933-008667FM-12+000999999V0202201N006019999999N999999999+00051-00091098841ADDMA1999999098721MD1810061+9999REMSYN04801001 46/// /2206 10005 21009 39872 49884 58006=
0089010010999992015010705004+70933-008667FM-12+000999999V0201901N004019999999N999999999+00071-00071098751ADDMA1999999098631MD1810151+9999REMSYN04801001 46/// /1904 10007 21007 39863 49875 58015=
0293010010999992015010706004+70933-008667FM-12+000999999V0201901N006019999999N020000199+00101-00071098661ADDAA112000091AA224002631AJ199991999999999AY121021AY221021GA1061+004501071GE19MSL   +99999+99999GF106991061999004501999999IA1249KA1240N+00041MA1999999098541MD1810181+9999MW1021OD139900901999REMSYN09401001 11470 61906 10010 21007 39854 49866 58018 60002 70222 86600 333 20004 44999 70026 91109=
0089010010999992015010707004+70933-008667FM-12+000999999V0201801N007019999999N999999999+00141-00011098541ADDMA1999999098431MD1810281+9999REMSYN04801001 46/// /1807 10014 21001 39843 49854 58028=
0089010010999992015010708004+70933-008667FM-12+000999999V0201801N007019999999N999999999+00171-00011098411ADDMA1999999098301MD1810341+9999REMSYN04801001 46/// /1807 10017 21001 39830 49841 58034=
0187010010999992015010709004+70933-008667FM-12+000999999V0201801N009019999999N020000199+00201-00041098291ADDAY121021AY221021GA1081+004501071GE19MSL   +99999+99999GF108991081999004501999999MA1999999098181MD1810371+9999MW1031REMSYN06001001 41470 81809 10020 21004 39818 49829 58037 70322 886//=
0089010010999992015010710004+70933-008667FM-12+000999999V0201701N010019999999N999999999+00221-00061098071ADDMA1999999097961MD1810471+9999REMSYN04801001 46/// /1710 10022 21006 39796 49807 58047=
0089010010999992015010711004+70933-008667FM-12+000999999V0201801N011019999999N999999999+00251-00041097861ADDMA1999999097751MD1810551+9999REMSYN04801001 46/// /1811 10025 21004 39775 49786 58055=
0248010010999992015010712004+70933-008667FM-12+000999999V0201701N015019999999N007000199+00201-00031097621ADDAA106000021AY161021AY221021GA1081+008001071GE19MSL   +99999+99999GF108991081999008001999999MA1999999097511MD1810671+9999MW1601OD139902301999SA1+0041REMSYN08801001 11557 81715 10020 21003 39751 49762 58067 69901 76062 886// 222// 00004 333 91123=
0089010010999992015010713004+70933-008667FM-12+000999999V0201601N013019999999N999999999+00111+00021097311ADDMA1999999097201MD1810761+9999REMSYN04801001 46/// /1613 10011 20002 39720 49731 58076=
0089010010999992015010714004+70933-008667FM-12+000999999V0201501N014019999999N999999999+00091+00021097031ADDMA1999999096921MD1810821+9999REMSYN04801001 46/// /1514 10009 20002 39692 49703 58082=
0187010010999992015010715004+70933-008667FM-12+000999999V0201601N015019999999N005000199+00181+00111096821ADDAY161021AY221021GA1081+004501071GE19MSL   +99999+99999GF108991081999004501999999MA1999999096711MD1810801+9999MW1611REMSYN06001001 41450 81615 10018 20011 39671 49682 58080 76162 886//=
0089010010999992015010716004+70933-008667FM-12+000999999V0201801N009019999999N999999999+00181+00111096611ADDMA1999999096501MD1810691+9999REMSYN04801001 46/// /1809 10018 20011 39650 49661 58069=
0089010010999992015010717004+70933-008667FM-12+000999999V0202101N009019999999N999999999+00231+00141096502ADDMA1999999096392MD1610531+9999REMSYN04801001 46/// /2109 10023 20014 39639 49650 56053=
0247010010999992015010718004+70933-008667FM-12+000999999V0202001N007019999999N008000199+00201+00091096542ADDAA112005031AY171021AY261021GA1081+004501071GE19MSL   +99999+99999GF108991081999004501999999KA1120M+00261MA1999999096432MD1510281+9999MW1101OD139902201999REMSYN08201001 11458 82007 10020 20009 39643 49654 55028 60052 71076 886// 333 10026 91122=
0089010010999992015010719004+70933-008667FM-12+000999999V0201801N006019999999N999999999+00181+00071096581ADDMA1999999096471MD1510031+9999REMSYN04801001 46/// /1806 10018 20007 39647 49658 55003=
0089010010999992015010720004+70933-008667FM-12+000999999V0202301N007019999999N999999999+00171+00061096601ADDMA1999999096491MD1210101+9999REMSYN04801001 46/// /2307 10017 20006 39649 49660 52010=
0089010010999992015010721004+70933-008667FM-12+000999999V0202101N010019999999N999999999+00201+00071096621ADDMA1999999096511MD1210081+9999REMSYN04801001 46/// /2110 10020 20007 39651 49662 52008=
0089010010999992015010722004+70933-008667FM-12+000999999V0202101N008019999999N999999999+00181+00061096651ADDMA1999999096541MD1210071+9999REMSYN04801001 46/// /2108 10018 20006 39654 49665 52007=
0089010010999992015010723004+70933-008667FM-12+000999999V0202101N008019999999N999999999+00171+00051096721ADDMA1999999096611MD1310121+9999REMSYN04801001 46/// /2108 10017 20005 39661 49672 53012=
0228010010999992015010800004+70933-008667FM-12+000999999V0202101N010019999999N008000199+00181+00061096741ADDAA106000091AY141021AY221021GA1071+004501071GE19MSL   +99999+99999GF107991071999004501999999MA1999999096631MD1310121+9999MW1101OD139901201999REMSYN07601001 11458 72110 10018 20006 39663 49674 53012 60001 71042 876// 333 91112=
0089010010999992015010801004+70933-008667FM-12+000999999V0202001N009019999999N999999999+00191+00071096781ADDMA1999999096671MD1110141+9999REMSYN04801001 46/// /2009 10019 20007 39667 49678 51014=
0089010010999992015010802004+70933-008667FM-12+000999999V0202001N009019999999N999999999+00171+00051096821ADDMA1999999096711MD1310101+9999REMSYN04801001 46/// /2009 10017 20005 39671 49682 53010=
0089010010999992015010803004+70933-008667FM-12+000999999V0202001N008019999999N999999999+00171+00051096821ADDMA1999999096711MD1990081+9999REMSYN04801001 46/// /2008 10017 20005 39671 49682 50008=
0089010010999992015010804004+70933-008667FM-12+000999999V0201801N007019999999N999999999+00151+00051096851ADDMA1999999096741MD1210071+9999REMSYN04801001 46/// /1807 10015 20005 39674 49685 52007=
0089010010999992015010805004+70933-008667FM-12+000999999V0201801N007019999999N999999999+00151+00051096881ADDMA1999999096771MD1310061+9999REMSYN04801001 46/// /1807 10015 20005 39677 49688 53006=
0290010010999992015010806004+70933-008667FM-12+000999999V0201601N005019999999N007000199+00151+00051096891ADDAA112000091AA224004531AJ199991999999999AY121021AY211021GA1031+004501071GA2999+999999001GE19MSL   +99999+99999GF104991031999004501999999IA1269MA1999999096781MD1110071+9999MW1101OD139901301999REMSYN08801001 11457 41605 10015 20005 39678 49689 51007 60002 71021 83601 333 42999 70045 91113=
0089010010999992015010807004+70933-008667FM-12+000999999V0201701N005019999999N999999999+00161+00071096871ADDMA1999999096761MD1990021+9999REMSYN04801001 46/// /1705 10016 20007 39676 49687 50002=
0089010010999992015010808004+70933-008667FM-12+000999999V0201701N007019999999N999999999+00181+00091096851ADDMA1999999096741MD1810031+9999REMSYN04801001 46/// /1707 10018 20009 39674 49685 58003=
0203010010999992015010809004+70933-008667FM-12+000999999V0201701N006019999999N005000199+00171+00071096821ADDAY111021AY201021GA1031+004501071GA2999+999999031GE19MSL   +99999+99999GF104991031999004501999999MA1999999096711MD1710071+9999MW1101REMSYN06001001 41450 41706 10017 20007 39671 49682 57007 71010 83630=
0089010010999992015010810004+70933-008667FM-12+000999999V0201701N005019999999N999999999+00151+00061096821ADDMA1999999096711MD1710051+9999REMSYN04801001 46/// /1705 10015 20006 39671 49682 57005=
0089010010999992015010811004+70933-008667FM-12+000999999V0203601N001019999999N999999999+00141+00051096791ADDMA1999999096681MD1710061+9999REMSYN04801001 46/// /3601 10014 20005 39668 49679 57006=
0248010010999992015010812004+70933-008667FM-12+000999999V0201201N001019999999N001500199+00151+00061096751ADDAA106000091AY121021AY201021GA1071+002501071GE19MSL   +99999+99999GF107991071999002501999999MA1999999096641MD1810071+9999MW1101OD139900801999SA1+0061REMSYN08801001 11315 71201 10015 20006 39664 49675 58007 60001 71020 876// 222// 00006 333 91108=
0089010010999992015010813004+70933-008667FM-12+000999999V0202701N002019999999N999999999+00131+00041096721ADDMA1999999096611MD1710091+9999REMSYN04801001 46/// /2702 10013 20004 39661 49672 57009=
0089010010999992015010814004+70933-008667FM-12+000999999V0202801N002019999999N999999999+00111+00021096671ADDMA1999999096561MD1710121+9999REMSYN04801001 46/// /2802 10011 20002 39656 49667 57012=
0187010010999992015010815004+70933-008667FM-12+000999999V0202301N002019999999N000500199+00101+00011096621ADDAY141021AY221021GA1071+004501071GE19MSL   +99999+99999GF107991071999004501999999MA1999999096511MD1710131+9999MW1441REMSYN06001001 41405 72302 10010 20001 39651 49662 57013 74442 876//=
0089010010999992015010816004+70933-008667FM-12+000999999V0202801N002019999999N999999999+00111+00011096601ADDMA1999999096491MD1710131+9999REMSYN04801001 46/// /2802 10011 20001 39649 49660 57013=
0089010010999992015010817004+70933-008667FM-12+000999999V0202701N003019999999N999999999+00111-00011096551ADDMA1999999096441MD1710111+9999REMSYN04801001 46/// /2703 10011 21001 39644 49655 57011=
0247010010999992015010818004+70933-008667FM-12+000999999V0202601N003019999999N005000199+00071-00041096511ADDAA112000091AY141021AY221021GA1081+004501071GE19MSL   +99999+99999GF108991081999004501999999KA1120M+00201MA1999999096401MD1710111+9999MW1401OD139900501999REMSYN08201001 11450 82603 10007 21004 39640 49651 57011 60002 74042 886// 333 10020 91105=
0089010010999992015010819004+70933-008667FM-12+000999999V0202801N002019999999N999999999+00021-00101096501ADDMA1999999096391MD1710101+9999REMSYN04801001 46/// /2802 10002 21010 39639 49650 57010=
0089010010999992015010820004+70933-008667FM-12+000999999V0202401N003019999999N999999999+00071-00031096511ADDMA1999999096401MD1510041+9999REMSYN04801001 46/// /2403 10007 21003 39640 49651 55004=
0089010010999992015010821004+70933-008667FM-12+000999999V0202501N005019999999N999999999+00061-00021096531ADDMA1999999096421MD1310021+9999REMSYN04801001 46/// /2505 10006 21002 39642 49653 53002=
0089010010999992015010822004+70933-008667FM-12+000999999V0202801N002019999999N999999999+00071-00011096561ADDMA1999999096451MD1210061+9999REMSYN04801001 46/// /2802 10007 21001 39645 49656 52006=
0089010010999992015010823004+70933-008667FM-12+000999999V0202701N005019999999N999999999+00111+00011096591ADDMA1999999096481MD1210081+9999REMSYN04801001 46/// /2705 10011 20001 39648 49659 52008=
0228010010999992015010900004+70933-008667FM-12+000999999V0202601N006019999999N025000199+00101-00051096641ADDAA106000091AY141021AY221021GA1041+008001061GE19MSL   +99999+99999GF104991041999008001999999MA1999999096531MD1210111+9999MW1021OD139900901999REMSYN07601001 11575 42606 10010 21005 39653 49664 52011 60001 70242 84500 333 91109=
0089010010999992015010901004+70933-008667FM-12+000999999V0202401N004019999999N999999999+00031-00061096721ADDMA1999999096611MD1310161+9999REMSYN04801001 46/// /2404 10003 21006 39661 49672 53016=
0089010010999992015010902004+70933-008667FM-12+000999999V0202601N007019999999N999999999-00011-00081096801ADDMA1999999096691MD1310201+9999REMSYN04801001 46/// /2607 11001 21008 39669 49680 53020=
0089010010999992015010903004+70933-008667FM-12+000999999V0202601N007019999999N999999999+00081-00051096861ADDMA1999999096751MD1210221+9999REMSYN04801001 46/// /2607 10008 21005 39675 49686 52022=
0089010010999992015010904004+70933-008667FM-12+000999999V0202601N007019999999N999999999+00111-00041096961ADDMA1999999096851MD1310241+9999REMSYN04801001 46/// /2607 10011 21004 39685 49696 53024=
0089010010999992015010905004+70933-008667FM-12+000999999V0202601N007019999999N999999999+00091-00051097051ADDMA1999999096941MD1310251+9999REMSYN04801001 46/// /2607 10009 21005 39694 49705 53025=
0293010010999992015010906004+70933-008667FM-12+000999999V0202701N007019999999N005000199+00101-00091097141ADDAA112000021AA224000021AJ199991999999999AY171021AY241021GA1081+004501071GE19MSL   +99999+99999GF108991081999004501999999IA1269KA1240N-00021MA1999999097031MD1210281+9999MW1701OD139901301999REMSYN09401001 11450 82707 10010 21009 39703 49714 52028 69902 77074 886// 333 21002 42/// 79999 91113=
0089010010999992015010907004+70933-008667FM-12+000999999V0202601N008019999999N999999999+00081-00111097241ADDMA1999999097131MD1310281+9999REMSYN04801001 46/// /2608 10008 21011 39713 49724 53028=
0089010010999992015010908004+70933-008667FM-12+000999999V0202601N008019999999N999999999+00051-00131097311ADDMA1999999097201MD1210261+9999REMSYN04801001 46/// /2608 10005 21013 39720 49731 52026=
0187010010999992015010909004+70933-008667FM-12+000999999V0202601N007019999999N010000199+00061-00141097371ADDAY171021AY241021GA1071+008001061GE19MSL   +99999+99999GF107991071999008001999999MA1999999097261MD1210231+9999MW1021REMSYN06001001 41560 72607 10006 21014 39726 49737 52023 70274 875//=
0089010010999992015010910004+70933-008667FM-12+000999999V0202601N010019999999N999999999+00011-00081097431ADDMA1999999097321MD1210191+9999REMSYN04801001 46/// /2610 10001 21008 39732 49743 52019=
0089010010999992015010911004+70933-008667FM-12+000999999V0202601N011019999999N999999999+00081-00181097551ADDMA1999999097441MD1310241+9999REMSYN04801001 46/// /2611 10008 21018 39744 49755 53024=
0264010010999992015010912004+70933-008667FM-12+000999999V0202601N011019999999N020000199+00061-00241097701ADDAA106000091AY121021AY221021GA1051+008001081GA2999+999999001GE19MSL   +99999+99999GF106991051999008001999999MA1999999097591MD1310331+9999MW1011OD139901701999SA1+0061REMSYN08801001 11570 62611 10006 21024 39759 49770 53033 60001 70122 85801 222// 00006 333 91117=
0089010010999992015010913004+70933-008667FM-12+000999999V0202501N010019999999N999999999+00061-00241097801ADDMA1999999097691MD1310361+9999REMSYN04801001 46/// /2510 10006 21024 39769 49780 53036=
0089010010999992015010914004+70933-008667FM-12+000999999V0202801N007019999999N999999999+00071-00261097891ADDMA1999999097781MD1210341+9999REMSYN04801001 46/// /2807 10007 21026 39778 49789 52034=
0187010010999992015010915004+70933-008667FM-12+000999999V0202001N012019999999N025000199+00071-00221097941ADDAY121021AY211021GA1041+004501091GE19MSL   +99999+99999GF104991041999004501999999MA1999999097831MD1110251+9999MW1011REMSYN06001001 41475 42012 10007 21022 39783 49794 51025 70121 84300=
0089010010999992015010916004+70933-008667FM-12+000999999V0201901N011019999999N999999999+00071-00211098021ADDMA1999999097911MD1110221+9999REMSYN04801001 46/// /1911 10007 21021 39791 49802 51022=
0089010010999992015010917004+70933-008667FM-12+000999999V0201901N009019999999N999999999+00061-00231098101ADDMA1999999097991MD1310211+9999REMSYN04801001 46/// /1909 10006 21023 39799 49810 53021=
0263010010999992015010918004+70933-008667FM-12+000999999V0201801N007019999999N030000199+00051-00201098181ADDAA112000091AY121021AY211021GA1031+012501061GA2999+999999031GE19MSL   +99999+99999GF104991031999012501999999KA1120M+00111MA1999999098071MD1210241+9999MW1021OD139901701999REMSYN08201001 11680 41807 10005 21020 39807 49818 52024 60002 70221 83540 333 10011 91117=
0089010010999992015010919004+70933-008667FM-12+000999999V0201601N005019999999N999999999+00041-00181098241ADDMA1999999098131MD1110221+9999REMSYN04801001 46/// /1605 10004 21018 39813 49824 51022=
0089010010999992015010920004+70933-008667FM-12+000999999V0201201N004019999999N999999999+00051-00131098231ADDMA1999999098121MD1990131+9999REMSYN04801001 46/// /1204 10005 21013 39812 49823 50013=
0089010010999992015010921004+70933-008667FM-12+000999999V0201001N004019999999N999999999+00051-00131098221ADDMA1999999098111MD1990041+9999REMSYN04801001 46/// /1004 10005 21013 39811 49822 50004=
0089010010999992015010922004+70933-008667FM-12+000999999V0200801N006019999999N999999999+00071-00251098181ADDMA1999999098071MD1810061+9999REMSYN04801001 46/// /0806 10007 21025 39807 49818 58006=
0089010010999992015010923004+70933-008667FM-12+000999999V0200601N008019999999N999999999+00131-00311098101ADDMA1999999097991MD1810131+9999REMSYN04801001 46/// /0608 10013 21031 39799 49810 58013=
0244010010999992015011000004+70933-008667FM-12+000999999V0200601N010019999999N030000199+00101-00131097971ADDAA106000091AY121021AY211021GA1071+012501061GA2999+999999031GE19MSL   +99999+99999GF108991071999012501999999MA1999999097861MD1810251+9999MW1031OD139901501999REMSYN07601001 11680 80610 10010 21013 39786 49797 58025 60001 70321 8754/ 333 91115=
0089010010999992015011001004+70933-008667FM-12+000999999V0200601N012019999999N999999999+00041-00011097781ADDMA1999999097671MD1810401+9999REMSYN04801001 46/// /0612 10004 21001 39767 49778 58040=
0089010010999992015011002004+70933-008667FM-12+000999999V0200701N016019999999N999999999+00131-00021097591ADDMA1999999097481MD1810511+9999REMSYN04801001 46/// /0716 10013 21002 39748 49759 58051=
0089010010999992015011003004+70933-008667FM-12+000999999V0200701N016019999999N999999999+00171-00051097481ADDMA1999999097371MD1610491+9999REMSYN04801001 46/// /0716 10017 21005 39737 49748 56049=
0089010010999992015011004004+70933-008667FM-12+000999999V0200901N015019999999N999999999+00131+00041097481ADDMA1999999097371MD1610301+9999REMSYN04801001 46/// /0915 10013 20004 39737 49748 56030=
0089010010999992015011005004+70933-008667FM-12+000999999V0209999C999999999999N999999999+00091-00021097521ADDMA1999999097411MD1510071+9999REMSYN04801001 46/// ///// 10009 21002 39741 49752 55007=
0293010010999992015011006004+70933-008667FM-12+000999999V0201401N008019999999N001000199+00041-00011097581ADDAA112003031AA224003431AJ199991999999999AY181021AY241021GA1081+002501081GE19MSL   +99999+99999GF108991081999002501999999IA1269KA1240N+00031MA1999999097471MD1310101+9999MW1841OD139902301999REMSYN09401001 11310 81408 10004 21001 39747 49758 53010 60032 78484 888// 333 20003 42999 70034 91123=
0089010010999992015011007004+70933-008667FM-12+000999999V0201401N007019999999N999999999+00081-00021097721ADDMA1999999097611MD1310241+9999REMSYN04801001 46/// /1407 10008 21002 39761 49772 53024=
0089010010999992015011008004+70933-008667FM-12+000999999V0201301N005019999999N999999999+00091-00061097811ADDMA1999999097701MD1310291+9999REMSYN04801001 46/// /1305 10009 21006 39770 49781 53029=
0187010010999992015011009004+70933-008667FM-12+000999999V0201001N005019999999N006000199+00071-00071097901ADDAY181021AY241021GA1081+008001081GE19MSL   +99999+99999GF108991081999008001999999MA1999999097791MD1110321+9999MW1851REMSYN06001001 41556 81005 10007 21007 39779 49790 51032 78584 888//=
0089010010999992015011010004+70933-008667FM-12+000999999V0201001N001019999999N999999999+00051-00071097951ADDMA1999999097841MD1210231+9999REMSYN04801001 46/// /1001 10005 21007 39784 49795 52023=
0089010010999992015011011004+70933-008667FM-12+000999999V0200501N001019999999N999999999+00061-00061097991ADDMA1999999097881MD1110181+9999REMSYN04801001 46/// /0501 10006 21006 39788 49799 51018=
0264010010999992015011012004+70933-008667FM-12+000999999V0203501N005019999999N003000199+00071-00061097941ADDAA106000231AY181021AY241021GA1071+004501081GA2999+999999051GE19MSL   +99999+99999GF108991071999004501999999MA1999999097831MD1990041+9999MW1851OD139901001999SA1+0061REMSYN08801001 11430 83505 10007 21006 39783 49794 50004 69921 78584 8782/ 222// 00006 333 91110=
0089010010999992015011013004+70933-008667FM-12+000999999V0203501N006019999999N999999999+00081-00071097941ADDMA1999999097831MD1990001+9999REMSYN04801001 46/// /3506 10008 21007 39783 49794 50000=
0089010010999992015011014004+70933-008667FM-12+000999999V0200201N004019999999N999999999+00081-00021097971ADDMA1999999097861MD1510021+9999REMSYN04801001 46/// /0204 10008 21002 39786 49797 55002=
0187010010999992015011015004+70933-008667FM-12+000999999V0200601N010019999999N006000199+00111-00021098001ADDAY181021AY241021GA1081+002501081GE19MSL   +99999+99999GF108991081999002501999999MA1999999097891MD1310071+9999MW1831REMSYN06001001 41356 80610 10011 21002 39789 49800 53007 78384 888//=
0089010010999992015011016004+70933-008667FM-12+000999999V0200601N008019999999N999999999+00091-00021098031ADDMA1999999097921MD1210091+9999REMSYN04801001 46/// /0608 10009 21002 39792 49803 52009=
0089010010999992015011017004+70933-008667FM-12+000999999V0200601N010019999999N999999999+00151-00051098041ADDMA1999999097931MD1210071+9999REMSYN04801001 46/// /0610 10015 21005 39793 49804 52007=
0247010010999992015011018004+70933-008667FM-12+000999999V0200701N009019999999N010000199+00131-00051098091ADDAA112003031AY181021AY241021GA1081+008001081GE19MSL   +99999+99999GF108991081999008001999999KA1120M+00161MA1999999097981MD1310081+9999MW1021OD139901501999REMSYN08201001 11560 80709 10013 21005 39798 49809 53008 60032 70284 888// 333 10016 91115=
0089010010999992015011019004+70933-008667FM-12+000999999V0200701N009019999999N999999999+00161-00041098141ADDMA1999999098031MD1310101+9999REMSYN04801001 46/// /0709 10016 21004 39803 49814 53010=
0089010010999992015011020004+70933-008667FM-12+000999999V0200601N008019999999N999999999+00151-00011098191ADDMA1999999098081MD1310151+9999REMSYN04801001 46/// /0608 10015 21001 39808 49819 53015=
0089010010999992015011021004+70933-008667FM-12+000999999V0200701N008019999999N999999999+00171+00021098241ADDMA1999999098131MD1210161+9999REMSYN04801001 46/// /0708 10017 20002 39813 49824 52016=
0089010010999992015011022004+70933-008667FM-12+000999999V0200701N008019999999N999999999+00171+00031098301ADDMA1999999098191MD1310171+9999REMSYN04801001 46/// /0708 10017 20003 39819 49830 53017=
0089010010999992015011023004+70933-008667FM-12+000999999V0200701N008019999999N999999999+00181+00041098371ADDMA1999999098261MD1310171+9999REMSYN04801001 46/// /0708 10018 20004 39826 49837 53017=
0228010010999992015011100004+70933-008667FM-12+000999999V0201301N006019999999N010000199+00071-00041098481ADDAA106000231AY181021AY221021GA1081+004501071GE19MSL   +99999+99999GF108991081999004501999999MA1999999098361MD1310231+9999MW1021OD139901401999REMSYN07601001 11460 81306 10007 21004 39836 49848 53023 69921 70282 886// 333 91114=
0089010010999992015011101004+70933-008667FM-12+000999999V0200301N001019999999N999999999+00091-00011098521ADDMA1999999098401MD1210211+9999REMSYN04801001 46/// /0301 10009 21001 39840 49852 52021=
0089010010999992015011102004+70933-008667FM-12+000999999V0200701N003019999999N999999999+00141+00041098561ADDMA1999999098451MD1110201+9999REMSYN04801001 46/// /0703 10014 20004 39845 49856 51020=
0089010010999992015011103004+70933-008667FM-12+000999999V0200801N004019999999N999999999+00171+00031098621ADDMA1999999098511MD1210151+9999REMSYN04801001 46/// /0804 10017 20003 39851 49862 52015=
0089010010999992015011104004+70933-008667FM-12+000999999V0200801N004019999999N999999999+00161+00041098621ADDMA1999999098511MD1990111+9999REMSYN04801001 46/// /0804 10016 20004 39851 49862 50011=
0089010010999992015011105004+70933-008667FM-12+000999999V0200801N004019999999N999999999+00171+00031098651ADDMA1999999098541MD1110091+9999REMSYN04801001 46/// /0804 10017 20003 39854 49865 51009=
0293010010999992015011106004+70933-008667FM-12+000999999V0200701N004019999999N010000199+00191+00031098691ADDAA112001031AA224004431AJ199991999999999AY181021AY221021GA1071+008001071GE19MSL   +99999+99999GF107991071999008001999999IA1269KA1240N+00071MA1999999098581MD1310071+9999MW1021OD139900901999REMSYN09401001 11560 70704 10019 20003 39858 49869 53007 60012 70282 876// 333 20007 42999 70044 91109=
0089010010999992015011107004+70933-008667FM-12+000999999V0200801N005019999999N999999999+00191+00021098751ADDMA1999999098641MD1310121+9999REMSYN04801001 46/// /0805 10019 20002 39864 49875 53012=
0089010010999992015011108004+70933-008667FM-12+000999999V0201001N005019999999N999999999+00191+00031098781ADDMA1999999098671MD1210131+9999REMSYN04801001 46/// /1005 10019 20003 39867 49878 52013=
0187010010999992015011109004+70933-008667FM-12+000999999V0200901N005019999999N010000199+00121+00001098821ADDAY121021AY221021GA1071+008001071GE19MSL   +99999+99999GF107991071999008001999999MA1999999098701MD1210121+9999MW1021REMSYN06001001 41560 70905 10012 21000 39870 49882 52012 70222 876//=
0089010010999992015011110004+70933-008667FM-12+000999999V0200701N005019999999N999999999+00111+00001098881ADDMA1999999098761MD1310121+9999REMSYN04801001 46/// /0705 10011 21000 39876 49888 53012=
0089010010999992015011111004+70933-008667FM-12+000999999V0200101N002019999999N999999999+00111+00001098901ADDMA1999999098781MD1210111+9999REMSYN04801001 46/// /0102 10011 20000 39878 49890 52011=
0264010010999992015011112004+70933-008667FM-12+000999999V0200701N006019999999N010000199+00121+00011098951ADDAA106000091AY121021AY221021GA1061+004501071GA2999+999999031GE19MSL   +99999+99999GF107991061999004501999999MA1999999098831MD1310131+9999MW1021OD139901001999SA1+0061REMSYN08801001 11460 70706 10012 20001 39883 49895 53013 60001 70222 8663/ 222// 00006 333 91110=
0089010010999992015011113004+70933-008667FM-12+000999999V0200501N004019999999N999999999+00081-00011098951ADDMA1999999098831MD1990071+9999REMSYN04801001 46/// /0504 10008 21001 39883 49895 50007=
0089010010999992015011114004+70933-008667FM-12+000999999V0200401N004019999999N999999999+00121+00021098971ADDMA1999999098851MD1110071+9999REMSYN04801001 46/// /0404 10012 20002 39885 49897 51007=
0222010010999992015011115004+70933-008667FM-12+000999999V0200801N005019999999N005000199+00131+00011098941ADDAY181021AY221021GA1051+004501071GA2999+999999031GE19MSL   +99999+99999GF106991051999004501999999MA1999999098821MD1790014+9999MW1101REMSYN06001001 41450 60805 10013 20001 39882 49894 54001 71082 85660=EQDQ01.1    3APC3  
0089010010999992015011116004+70933-008667FM-12+000999999V0200601N005019999999N999999999+00141+00011098931ADDMA1999999098811MD1810021+9999REMSYN04801001 46/// /0605 10014 20001 39881 49893 58002=
0089010010999992015011117004+70933-008667FM-12+000999999V0200801N006019999999N999999999+00151+00011098921ADDMA1999999098801MD1710041+9999REMSYN04801001 46/// /0806 10015 20001 39880 49892 57004=
0247010010999992015011118004+70933-008667FM-12+000999999V0200801N008019999999N010000199+00171-00041098891ADDAA112000631AY181021AY221021GA1061+008001071GE19MSL   +99999+99999GF106991061999008001999999KA1120M+00211MA1999999098771MD1710051+9999MW1561OD139901001999REMSYN08201001 11560 60808 10017 21004 39877 49889 57005 69962 75682 86600 333 10021 91110=
0089010010999992015011119004+70933-008667FM-12+000999999V0200701N007019999999N999999999+00141-00091098901ADDMA1999999098781MD1710031+9999REMSYN04801001 46/// /0707 10014 21009 39878 49890 57003=
0089010010999992015011120004+70933-008667FM-12+000999999V0200801N009019999999N999999999+00121-00111098881ADDMA1999999098761MD1710041+9999REMSYN04801001 46/// /0809 10012 21011 39876 49888 57004=
0089010010999992015011121004+70933-008667FM-12+000999999V0200701N009019999999N999999999+00121-00151098871ADDMA1999999098751MD1810021+9999REMSYN04801001 46/// /0709 10012 21015 39875 49887 58002=
0089010010999992015011122004+70933-008667FM-12+000999999V0200701N006019999999N999999999+00051-00151098861ADDMA1999999098741MD1710041+9999REMSYN04801001 46/// /0706 10005 21015 39874 49886 57004=
0089010010999992015011123004+70933-008667FM-12+000999999V0200801N010019999999N999999999+00051-00141098821ADDMA1999999098701MD1810061+9999REMSYN04801001 46/// /0810 10005 21014 39870 49882 58006=
0228010010999992015011200004+70933-008667FM-12+000999999V0200901N008019999999N005000199-00021-00121098771ADDAA106000021AY151021AY221021GA1071+008001071GE19MSL   +99999+99999GF107991071999008001999999MA1999999098651MD1810101+9999MW1701OD139901501999REMSYN07601001 11550 70908 11002 21012 39865 49877 58010 69901 77052 876// 333 91115=
0089010010999992015011201004+70933-008667FM-12+000999999V0200701N012019999999N999999999+00031-00081098671ADDMA1999999098551MD1810191+9999REMSYN04801001 46/// /0712 10003 21008 39855 49867 58019=
0089010010999992015011202004+70933-008667FM-12+000999999V0200701N014019999999N999999999+00101-00171098591ADDMA1999999098471MD1810231+9999REMSYN04801001 46/// /0714 10010 21017 39847 49859 58023=
0089010010999992015011203004+70933-008667FM-12+000999999V0200701N011019999999N999999999+00071-00191098541ADDMA1999999098421MD1610231+9999REMSYN04801001 46/// /0711 10007 21019 39842 49854 56023=
0089010010999992015011204004+70933-008667FM-12+000999999V0200701N013019999999N999999999+00101-00231098461ADDMA1999999098351MD1610201+9999REMSYN04801001 46/// /0713 10010 21023 39835 49846 56020=
0089010010999992015011205004+70933-008667FM-12+000999999V0200801N013019999999N999999999-00021-00111098471ADDMA1999999098351MD1510111+9999REMSYN04801001 46/// /0813 11002 21011 39835 49847 55011=
0293010010999992015011206004+70933-008667FM-12+000999999V0200801N014019999999N010000199+00021-00201098421ADDAA112000231AA224000831AJ199991999999999AY181021AY221021GA1041+008001081GE19MSL   +99999+99999GF104991041999008001999999IA1269KA1240N-00041MA1999999098301MD1610121+9999MW1261OD139902001999REMSYN09401001 11560 40814 10002 21020 39830 49842 56012 69922 72682 84800 333 21004 42999 70008 91120=
0089010010999992015011207004+70933-008667FM-12+000999999V0200701N012019999999N999999999+00081-00241098321ADDMA1999999098211MD1810141+9999REMSYN04801001 46/// /0712 10008 21024 39821 49832 58014=
0089010010999992015011208004+70933-008667FM-12+000999999V0200601N011019999999N999999999+00061-00161098271ADDMA1999999098161MD1810191+9999REMSYN04801001 46/// /0611 10006 21016 39816 49827 58019=
0203010010999992015011209004+70933-008667FM-12+000999999V0200701N012019999999N010000199+00071-00231098251ADDAY181021AY221021GA1031+008001071GA2999+999999001GE19MSL   +99999+99999GF104991031999008001999999MA1999999098141MD1610161+9999MW1021REMSYN06001001 41560 40712 10007 21023 39814 49825 56016 70282 83602=
0089010010999992015011210004+70933-008667FM-12+000999999V0200601N014019999999N999999999+00101-00271098201ADDMA1999999098091MD1710121+9999REMSYN04801001 46/// /0614 10010 21027 39809 49820 57012=
0089010010999992015011211004+70933-008667FM-12+000999999V0200601N012019999999N999999999+00051-00211098181ADDMA1999999098071MD1810091+9999REMSYN04801001 46/// /0612 10005 21021 39807 49818 58009=
0248010010999992015011212004+70933-008667FM-12+000999999V0200701N014019999999N002000199+00081-00181098171ADDAA106000021AY121021AY211021GA1081+004501071GE19MSL   +99999+99999GF108991081999004501999999MA1999999098061MD1610081+9999MW1701OD139902001999SA1+0051REMSYN08801001 11420 80714 10008 21018 39806 49817 56008 69901 77021 886// 222// 00005 333 91120=
0089010010999992015011213004+70933-008667FM-12+000999999V0200701N013019999999N999999999+00041-00181098171ADDMA1999999098061MD1810031+9999REMSYN04801001 46/// /0713 10004 21018 39806 49817 58003=
0089010010999992015011214004+70933-008667FM-12+000999999V0200601N011019999999N999999999+00061-00271098151ADDMA1999999098041MD1710031+9999REMSYN04801001 46/// /0611 10006 21027 39804 49815 57003=
0187010010999992015011215004+70933-008667FM-12+000999999V0200401N011019999999N010000199+00061-00271098131ADDAY171021AY221021GA1071+008001071GE19MSL   +99999+99999GF107991071999008001999999MA1999999098021MD1810041+9999MW1021REMSYN06001001 41560 70411 10006 21027 39802 49813 58004 70272 876//=
0089010010999992015011216004+70933-008667FM-12+000999999V0200701N013019999999N999999999+00121-00231098141ADDMA1999999098031MD1510021+9999REMSYN04801001 46/// /0713 10012 21023 39803 49814 55002=
0089010010999992015011217004+70933-008667FM-12+000999999V0200701N012019999999N999999999+00071-00151098171ADDMA1999999098061MD1310021+9999REMSYN04801001 46/// /0712 10007 21015 39806 49817 53002=
0247010010999992015011218004+70933-008667FM-12+000999999V0200601N012019999999N010000199+00091-00231098181ADDAA112000091AY121021AY221021GA1051+008001071GE19MSL   +99999+99999GF105991051999008001999999KA1120M+00121MA1999999098071MD1210051+9999MW1011OD139902001999REMSYN08201001 11560 50612 10009 21023 39807 49818 52005 60002 70122 85600 333 10012 91120=
0089010010999992015011219004+70933-008667FM-12+000999999V0200601N012019999999N999999999+00071-00261098251ADDMA1999999098141MD1310101+9999REMSYN04801001 46/// /0612 10007 21026 39814 49825 53010=
0089010010999992015011220004+70933-008667FM-12+000999999V0200501N011019999999N999999999+00051-00331098281ADDMA1999999098171MD1310111+9999REMSYN04801001 46/// /0511 10005 21033 39817 49828 53011=
0089010010999992015011221004+70933-008667FM-12+000999999V0200601N014019999999N999999999+00061-00401098271ADDMA1999999098161MD1110091+9999REMSYN04801001 46/// /0614 10006 21040 39816 49827 51009=
0089010010999992015011222004+70933-008667FM-12+000999999V0200601N013019999999N999999999+00041-00361098321ADDMA1999999098201MD1210061+9999REMSYN04801001 46/// /0613 10004 21036 39820 49832 52006=
0089010010999992015011223004+70933-008667FM-12+000999999V0200601N012019999999N999999999-00021-00351098351ADDMA1999999098231MD1310061+9999REMSYN04801001 46/// /0612 11002 21035 39823 49835 53006=
0228010010999992015011300004+70933-008667FM-12+000999999V0200601N014019999999N025000199+00001-00461098371ADDAA106000091AY121021AY211021GA1021+008001071GE19MSL   +99999+99999GF102991021999008001999999MA1999999098251MD1210091+9999MW1021OD139901901999REMSYN07601001 11575 20614 10000 21046 39825 49837 52009 60001 70221 82600 333 91119=
0089010010999992015011301004+70933-008667FM-12+000999999V0200501N013019999999N999999999-00031-00491098431ADDMA1999999098311MD1310111+9999REMSYN04801001 46/// /0513 11003 21049 39831 49843 53011=
0089010010999992015011302004+70933-008667FM-12+000999999V0200501N010019999999N999999999-00071-00311098471ADDMA1999999098351MD1310121+9999REMSYN04801001 46/// /0510 11007 21031 39835 49847 53012=
0089010010999992015011303004+70933-008667FM-12+000999999V0200301N007019999999N999999999-00041-00381098521ADDMA1999999098401MD1110151+9999REMSYN04801001 46/// /0307 11004 21038 39840 49852 51015=
0089010010999992015011304004+70933-008667FM-12+000999999V0200301N009019999999N999999999-00021-00451098561ADDMA1999999098441MD1110131+9999REMSYN04801001 46/// /0309 11002 21045 39844 49856 51013=
0089010010999992015011305004+70933-008667FM-12+000999999V0200401N010019999999N999999999+00001-00541098591ADDMA1999999098471MD1990121+9999REMSYN04801001 46/// /0410 10000 21054 39847 49859 50012=
0293010010999992015011306004+70933-008667FM-12+000999999V0200301N009019999999N020000199-00031-00541098591ADDAA112000091AA224000091AJ199991999999999AY131021AY211021GA1031+008001061GE19MSL   +99999+99999GF103991031999008001999999IA1229KA1240N-00151MA1999999098471MD1990071+9999MW1021OD139901901999REMSYN09401001 11570 30309 11003 21054 39847 49859 50007 60002 70231 83500 333 21015 46999 70000 91119=
0089010010999992015011307004+70933-008667FM-12+000999999V0200401N012019999999N999999999-00061-00431098611ADDMA1999999098491MD1310051+9999REMSYN04801001 46/// /0412 11006 21043 39849 49861 53005=
0089010010999992015011308004+70933-008667FM-12+000999999V0200301N012019999999N999999999-00121-00391098651ADDMA1999999098531MD1310061+9999REMSYN04801001 46/// /0312 11012 21039 39853 49865 53006=
0187010010999992015011309004+70933-008667FM-12+000999999V0200301N012019999999N002000199-00101-00311098641ADDAY171021AY231021GA1071+008001061GE19MSL   +99999+99999GF107991071999008001999999MA1999999098521MD1310061+9999MW1701REMSYN06001001 41520 70312 11010 21031 39852 49864 53006 77073 875//=
0089010010999992015011310004+70933-008667FM-12+000999999V0200401N012019999999N999999999-00111-00341098681ADDMA1999999098561MD1110071+9999REMSYN04801001 46/// /0412 11011 21034 39856 49868 51007=
0089010010999992015011311004+70933-008667FM-12+000999999V0200301N012019999999N999999999-00091-00331098691ADDMA1999999098571MD1210051+9999REMSYN04801001 46/// /0312 11009 21033 39857 49869 52005=
0248010010999992015011312004+70933-008667FM-12+000999999V0200201N013019999999N007000199-00081-00381098691ADDAA106000021AY171021AY231021GA1071+004501081GE19MSL   +99999+99999GF107991071999004501999999MA1999999098571MD1210051+9999MW1401OD139902101999SA1+0041REMSYN08801001 11457 70213 11008 21038 39857 49869 52005 69901 74073 878// 222// 00004 333 91121=
0089010010999992015011313004+70933-008667FM-12+000999999V0200201N013019999999N999999999-00121-00421098711ADDMA1999999098591MD1310031+9999REMSYN04801001 46/// /0213 11012 21042 39859 49871 53003=
0108010010999992015011314004+70933-008667FM-12+000999999V0200201N014019999999N999999999-00121-00501098691ADDMA1999999098571MD1410004+9999REMSYN04801001 46/// /0214 11012 21050 39857 49869 54001=EQDQ01.1    3APC3  
0203010010999992015011315004+70933-008667FM-12+000999999V0200201N015019999999N030000199-00161-00531098641ADDAY131021AY221021GA1031+008001091GA2999+999999031GE19MSL   +99999+99999GF104991031999008001999999MA1999999098521MD1810051+9999MW1011REMSYN06001001 41580 40215 11016 21053 39852 49864 58005 70132 83350=
0089010010999992015011316004+70933-008667FM-12+000999999V0200201N013019999999N999999999-00141-00581098641ADDMA1999999098521MD1510061+9999REMSYN04801001 46/// /0213 11014 21058 39852 49864 55006=
0089010010999992015011317004+70933-008667FM-12+000999999V0200201N014019999999N999999999-00141-00461098621ADDMA1999999098501MD1510071+9999REMSYN04801001 46/// /0214 11014 21046 39850 49862 55007=
0247010010999992015011318004+70933-008667FM-12+000999999V0200401N012019999999N010000199-00141-00601098641ADDAA112000021AY131021AY221021GA1071+012501061GE19MSL   +99999+99999GF107991071999012501999999KA1120M-00031MA1999999098521MD1510001+9999MW1361OD139902301999REMSYN08201001 11660 70412 11014 21060 39852 49864 55000 69902 73632 87500 333 11003 91123=
0089010010999992015011319004+70933-008667FM-12+000999999V0200201N014019999999N999999999-00151-00601098641ADDMA1999999098521MD1510011+9999REMSYN04801001 46/// /0214 11015 21060 39852 49864 55001=
0089010010999992015011320004+70933-008667FM-12+000999999V0200101N013019999999N999999999-00151-00531098641ADDMA1999999098521MD1310021+9999REMSYN04801001 46/// /0113 11015 21053 39852 49864 53002=
0089010010999992015011321004+70933-008667FM-12+000999999V0200201N015019999999N999999999-00211-00561098621ADDMA1999999098501MD1510021+9999REMSYN04801001 46/// /0215 11021 21056 39850 49862 55002=
0089010010999992015011322004+70933-008667FM-12+000999999V0200101N013019999999N999999999-00181-00631098611ADDMA1999999098491MD1510031+9999REMSYN04801001 46/// /0113 11018 21063 39849 49861 55003=
0089010010999992015011323004+70933-008667FM-12+000999999V0209999C999999999999N999999999-00331-00431098591ADDMA1999999098471MD1510051+9999REMSYN04801001 46/// ///// 11033 21043 39847 49859 55005=
0228010010999992015011400004+70933-008667FM-12+000999999V0200101N015019999999N003000199-00261-00651098531ADDAA106000131AY181021AY231021GA1041+012501061GE19MSL   +99999+99999GF104991041999012501999999MA1999999098411MD1610091+9999MW1381OD139902801999REMSYN07601001 11630 40115 11026 21065 39841 49853 56009 69911 73883 84500 333 91128=
0089010010999992015011401004+70933-008667FM-12+000999999V0200101N015019999999N999999999-00191-00681098521ADDMA1999999098401MD1710091+9999REMSYN04801001 46/// /0115 11019 21068 39840 49852 57009=
0089010010999992015011402004+70933-008667FM-12+000999999V0200101N017019999999N999999999-00161-00531098481ADDMA1999999098361MD1810111+9999REMSYN04801001 46/// /0117 11016 21053 39836 49848 58011=
0089010010999992015011403004+70933-008667FM-12+000999999V0200101N013019999999N999999999-00151-00411098481ADDMA1999999098361MD1810051+9999REMSYN04801001 46/// /0113 11015 21041 39836 49848 58005=
0089010010999992015011404004+70933-008667FM-12+000999999V0200101N012019999999N999999999-00111-00401098451ADDMA1999999098331MD1810071+9999REMSYN04801001 46/// /0112 11011 21040 39833 49845 58007=
0089010010999992015011405004+70933-008667FM-12+000999999V0200101N013019999999N999999999-00101-00421098391ADDMA1999999098271MD1810091+9999REMSYN04801001 46/// /0113 11010 21042 39827 49839 58009=
0293010010999992015011406004+70933-008667FM-12+000999999V0200201N013019999999N010000199-00101-00471098411ADDAA112000131AA224000131AJ199991999999999AY181021AY231021GA1071+012501081GE19MSL   +99999+99999GF107991071999012501999999IA1229KA1240N-00361MA1999999098291MD1510071+9999MW1851OD139902101999REMSYN09401001 11660 70213 11010 21047 39829 49841 55007 69912 78583 878// 333 21036 46999 70001 91121=
0089010010999992015011407004+70933-008667FM-12+000999999V0200201N015019999999N999999999-00111-00481098421ADDMA1999999098301MD1510031+9999REMSYN04801001 46/// /0215 11011 21048 39830 49842 55003=
0089010010999992015011408004+70933-008667FM-12+000999999V0200201N016019999999N999999999-00111-00461098441ADDMA1999999098321MD1210051+9999REMSYN04801001 46/// /0216 11011 21046 39832 49844 52005=
0187010010999992015011409004+70933-008667FM-12+000999999V0200101N016019999999N010000199-00091-00441098481ADDAY181021AY231021GA1081+008001081GE19MSL   +99999+99999GF108991081999008001999999MA1999999098361MD1310071+9999MW1851REMSYN06001001 41560 80116 11009 21044 39836 49848 53007 78583 888//=
0089010010999992015011410004+70933-008667FM-12+000999999V0200101N017019999999N999999999-00071-00411098491ADDMA1999999098371MD1210071+9999REMSYN04801001 46/// /0117 11007 21041 39837 49849 52007=
0089010010999992015011411004+70933-008667FM-12+000999999V0200101N017019999999N999999999-00081-00441098471ADDMA1999999098351MD1990031+9999REMSYN04801001 46/// /0117 11008 21044 39835 49847 50003=
0248010010999992015011412004+70933-008667FM-12+000999999V0200101N016019999999N010000199-00081-00501098471ADDAA106000021AY181021AY231021GA1071+004501071GE19MSL   +99999+99999GF107991071999004501999999MA1999999098351MD1710011+9999MW1361OD139902601999SA1+0051REMSYN08801001 11460 70116 11008 21050 39835 49847 57001 69901 73683 876// 222// 00005 333 91126=
0089010010999992015011413004+70933-008667FM-12+000999999V0200101N015019999999N999999999-00091-00511098481ADDMA1999999098361MD1510011+9999REMSYN04801001 46/// /0115 11009 21051 39836 49848 55001=
0089010010999992015011414004+70933-008667FM-12+000999999V0200101N017019999999N999999999-00081-00431098491ADDMA1999999098371MD1990021+9999REMSYN04801001 46/// /0117 11008 21043 39837 49849 50002=
0187010010999992015011415004+70933-008667FM-12+000999999V0200101N015019999999N010000199-00111-00461098501ADDAY131021AY221021GA1081+004501071GE19MSL   +99999+99999GF108991081999004501999999MA1999999098381MD1990031+9999MW1101REMSYN06001001 41460 80115 11011 21046 39838 49850 50003 71032 886//=
0089010010999992015011416004+70933-008667FM-12+000999999V0200201N018019999999N999999999-00101-00531098471ADDMA1999999098351MD1990011+9999REMSYN04801001 46/// /0218 11010 21053 39835 49847 50001=
0089010010999992015011417004+70933-008667FM-12+000999999V0200101N016019999999N999999999-00111-00511098461ADDMA1999999098341MD1810031+9999REMSYN04801001 46/// /0116 11011 21051 39834 49846 58003=
0247010010999992015011418004+70933-008667FM-12+000999999V0200101N019019999999N020000199-00101-00531098431ADDAA112000021AY131021AY221021GA1081+012501061GE19MSL   +99999+99999GF108991081999012501999999KA1120M-00071MA1999999098311MD1710071+9999MW1021OD139902701999REMSYN08201001 11670 80119 11010 21053 39831 49843 57007 69902 70232 885// 333 11007 91127=
0089010010999992015011419004+70933-008667FM-12+000999999V0200101N019019999999N999999999-00111-00521098441ADDMA1999999098321MD1510031+9999REMSYN04801001 46/// /0119 11011 21052 39832 49844 55003=
0089010010999992015011420004+70933-008667FM-12+000999999V0200101N018019999999N999999999-00141-00531098461ADDMA1999999098341MD1510001+9999REMSYN04801001 46/// /0118 11014 21053 39834 49846 55000=
0089010010999992015011421004+70933-008667FM-12+000999999V0200101N016019999999N999999999-00211-00551098471ADDMA1999999098351MD1210031+9999REMSYN04801001 46/// /0116 11021 21055 39835 49847 52003=
0089010010999992015011422004+70933-008667FM-12+000999999V0203601N016019999999N999999999-00231-00471098401ADDMA1999999098281MD1810051+9999REMSYN04801001 46/// /3616 11023 21047 39828 49840 58005=
0089010010999992015011423004+70933-008667FM-12+000999999V0203601N016019999999N999999999-00251-00381098311ADDMA1999999098191MD1810151+9999REMSYN04801001 46/// /3616 11025 21038 39819 49831 58015=
0228010010999992015011500004+70933-008667FM-12+000999999V0203501N014019999999N004000199-00211-00401098191ADDAA106000091AY131021AY221021GA1081+008001081GE19MSL   +99999+99999GF108991081999008001999999MA1999999098071MD1810271+9999MW1381OD139902701999REMSYN07601001 11540 83514 11021 21040 39807 49819 58027 60001 73832 888// 333 91127=
0089010010999992015011501004+70933-008667FM-12+000999999V0203401N014019999999N999999999-00231-00321098051ADDMA1999999097931MD1810351+9999REMSYN04801001 46/// /3414 11023 21032 39793 49805 58035=
0089010010999992015011502004+70933-008667FM-12+000999999V0203401N019019999999N999999999-00221-00281097861ADDMA1999999097741MD1810441+9999REMSYN04801001 46/// /3419 11022 21028 39774 49786 58044=
0089010010999992015011503004+70933-008667FM-12+000999999V0203401N015019999999N999999999-00191-00241097641ADDMA1999999097521MD1810551+9999REMSYN04801001 46/// /3415 11019 21024 39752 49764 58055=
0089010010999992015011504004+70933-008667FM-12+000999999V0203401N011019999999N999999999-00071-00131097391ADDMA1999999097281MD1810641+9999REMSYN04801001 46/// /3411 11007 21013 39728 49739 58064=
0089010010999992015011505004+70933-008667FM-12+000999999V0200701N007019999999N999999999+00101-00161097481ADDMA1999999097371MD1510371+9999REMSYN04801001 46/// /0707 10010 21016 39737 49748 55037=
0293010010999992015011506004+70933-008667FM-12+000999999V0203601N008019999999N020000199+00131-00061097441ADDAA112002032AA224001532AJ199991999999999AY181021AY231021GA1061+008001061GE19MSL   +99999+99999GF106991061999008001999999IA1229KA1240N-00271MA1999999097331MD1510191+9999MW1011OD139902901999REMSYN09401001 11570 63608 10013 21006 39733 49744 55019 60022 70183 86500 333 21027 46999 70015 91129=
0089010010999992015011507004+70933-008667FM-12+000999999V0200301N006019999999N999999999+00261-00071097421ADDMA1999999097311MD1990021+9999REMSYN04801001 46/// /0306 10026 21007 39731 49742 50002=
0089010010999992015011508004+70933-008667FM-12+000999999V0200501N014019999999N999999999+00221-00021097471ADDMA1999999097361MD1510011+9999REMSYN04801001 46/// /0514 10022 21002 39736 49747 55001=
0187010010999992015011509004+70933-008667FM-12+000999999V0200501N013019999999N020000199+00191-00111097621ADDAY131021AY221021GA1061+008001061GE19MSL   +99999+99999GF106991061999008001999999MA1999999097511MD1310181+9999MW1021REMSYN06001001 41570 60513 10019 21011 39751 49762 53018 70232 86500=
0089010010999992015011510004+70933-008667FM-12+000999999V0200501N013019999999N999999999+00181-00121097691ADDMA1999999097581MD1110281+9999REMSYN04801001 46/// /0513 10018 21012 39758 49769 51028=
0089010010999992015011511004+70933-008667FM-12+000999999V0200501N012019999999N999999999+00151-00111097741ADDMA1999999097631MD1110261+9999REMSYN04801001 46/// /0512 10015 21011 39763 49774 51026=
0248010010999992015011512004+70933-008667FM-12+000999999V0200401N010019999999N015000199+00111-00111097781ADDAA106000091AY131021AY221021GA1051+008001081GE19MSL   +99999+99999GF105991051999008001999999MA1999999097671MD1110161+9999MW1021OD139902101999SA1+0041REMSYN08801001 11565 50410 10011 21011 39767 49778 51016 60001 70232 85800 222// 00004 333 91121=
0089010010999992015011513004+70933-008667FM-12+000999999V0200501N011019999999N999999999+00181-00091097821ADDMA1999999097711MD1210131+9999REMSYN04801001 46/// /0511 10018 21009 39771 49782 52013=
0089010010999992015011514004+70933-008667FM-12+000999999V0200501N013019999999N999999999+00171-00031097891ADDMA1999999097781MD1310151+9999REMSYN04801001 46/// /0513 10017 21003 39778 49789 53015=
0187010010999992015011515004+70933-008667FM-12+000999999V0200601N012019999999N020000199+00231-00041097951ADDAY121021AY221021GA1061+004501071GE19MSL   +99999+99999GF106991061999004501999999MA1999999097841MD1310171+9999MW1021REMSYN06001001 41470 60612 10023 21004 39784 49795 53017 70222 86600=
0089010010999992015011516004+70933-008667FM-12+000999999V0200501N010019999999N999999999+00181-00141097971ADDMA1999999097861MD1990151+9999REMSYN04801001 46/// /0510 10018 21014 39786 49797 50015=
0089010010999992015011517004+70933-008667FM-12+000999999V0200601N013019999999N999999999+00231-00041098051ADDMA1999999097941MD1310161+9999REMSYN04801001 46/// /0613 10023 21004 39794 49805 53016=
0247010010999992015011518004+70933-008667FM-12+000999999V0200601N012019999999N010000199+00231-00061098091ADDAA112000131AY181021AY211021GA1051+008001081GE19MSL   +99999+99999GF105991051999008001999999KA1120M+00271MA1999999097981MD1310141+9999MW1831OD139901901999REMSYN08201001 11560 50612 10023 21006 39798 49809 53014 69912 78381 85800 333 10027 91119=
0089010010999992015011519004+70933-008667FM-12+000999999V0200501N013019999999N999999999+00201-00061098161ADDMA1999999098051MD1310191+9999REMSYN04801001 46/// /0513 10020 21006 39805 49816 53019=
0089010010999992015011520004+70933-008667FM-12+000999999V0200601N012019999999N999999999+00221-00041098211ADDMA1999999098101MD1310171+9999REMSYN04801001 46/// /0612 10022 21004 39810 49821 53017=
0089010010999992015011521004+70933-008667FM-12+000999999V0200601N014019999999N999999999+00201-00031098321ADDMA1999999098211MD1310221+9999REMSYN04801001 46/// /0614 10020 21003 39821 49832 53022=
0089010010999992015011522004+70933-008667FM-12+000999999V0200601N014019999999N999999999+00241-00051098391ADDMA1999999098281MD1310231+9999REMSYN04801001 46/// /0614 10024 21005 39828 49839 53023=
0089010010999992015011523004+70933-008667FM-12+000999999V0200501N012019999999N999999999+00191-00161098461ADDMA1999999098351MD1310241+9999REMSYN04801001 46/// /0512 10019 21016 39835 49846 53024=
0228010010999992015011600004+70933-008667FM-12+000999999V0200501N012019999999N020000199+00161-00051098541ADDAA106000131AY181021AY201021GA1021+008001071GE19MSL   +99999+99999GF102991021999008001999999MA1999999098431MD1310231+9999MW1021OD139902101999REMSYN07601001 11570 20512 10016 21005 39843 49854 53023 69911 70280 82600 333 91121=
0089010010999992015011601004+70933-008667FM-12+000999999V0200501N013019999999N999999999+00211-00061098641ADDMA1999999098531MD1310251+9999REMSYN04801001 46/// /0513 10021 21006 39853 49864 53025=
0089010010999992015011602004+70933-008667FM-12+000999999V0200501N013019999999N999999999+00191-00121098691ADDMA1999999098581MD1110241+9999REMSYN04801001 46/// /0513 10019 21012 39858 49869 51024=
0089010010999992015011603004+70933-008667FM-12+000999999V0200501N014019999999N999999999+00191-00141098751ADDMA1999999098641MD1110211+9999REMSYN04801001 46/// /0514 10019 21014 39864 49875 51021=
0089010010999992015011604004+70933-008667FM-12+000999999V0200401N012019999999N999999999+00151-00171098851ADDMA1999999098731MD1310201+9999REMSYN04801001 46/// /0412 10015 21017 39873 49885 53020=
0089010010999992015011605004+70933-008667FM-12+000999999V0200101N011019999999N999999999+00081-00131098921ADDMA1999999098801MD1310221+9999REMSYN04801001 46/// /0111 10008 21013 39880 49892 53022=
0293010010999992015011606004+70933-008667FM-12+000999999V0200101N009019999999N010000199+00101-00191099001ADDAA112000131AA224000231AJ199991999999999AY181021AY221021GA1081+008001081GE19MSL   +99999+99999GF108991081999008001999999IA1229KA1240N+00061MA1999999098881MD1310251+9999MW1851OD139902101999REMSYN09401001 11560 80109 10010 21019 39888 49900 53025 69912 78582 888// 333 20006 46999 70002 91121=
0089010010999992015011607004+70933-008667FM-12+000999999V0200101N010019999999N999999999+00051-00231099061ADDMA1999999098941MD1310211+9999REMSYN04801001 46/// /0110 10005 21023 39894 49906 53021=
0089010010999992015011608004+70933-008667FM-12+000999999V0200101N013019999999N999999999+00011-00271099161ADDMA1999999099041MD1310231+9999REMSYN04801001 46/// /0113 10001 21027 39904 49916 53023=
0187010010999992015011609004+70933-008667FM-12+000999999V0200101N015019999999N015000199-00021-00261099191ADDAY181021AY271021GA1061+008001071GE19MSL   +99999+99999GF106991061999008001999999MA1999999099071MD1310191+9999MW1701REMSYN06001001 41565 60115 11002 21026 39907 49919 53019 77087 86600=
0089010010999992015011610004+70933-008667FM-12+000999999V0200101N014019999999N999999999-00041-00291099281ADDMA1999999099161MD1310221+9999REMSYN04801001 46/// /0114 11004 21029 39916 49928 53022=
0089010010999992015011611004+70933-008667FM-12+000999999V0200101N016019999999N999999999-00051-00311099341ADDMA1999999099221MD1310191+9999REMSYN04801001 46/// /0116 11005 21031 39922 49934 53019=
0264010010999992015011612004+70933-008667FM-12+000999999V0200101N014019999999N010000199-00051-00331099371ADDAA106000021AY171021AY221021GA1061+004501071GA2999+999999031GE19MSL   +99999+99999GF107991061999004501999999MA1999999099251MD1110181+9999MW1101OD139902301999SA1+0081REMSYN08801001 11460 70114 11005 21033 39925 49937 51018 69901 71072 8663/ 222// 00008 333 91123=
0089010010999992015011613004+70933-008667FM-12+000999999V0200201N015019999999N999999999-00061-00361099431ADDMA1999999099311MD1310151+9999REMSYN04801001 46/// /0215 11006 21036 39931 49943 53015=
0089010010999992015011614004+70933-008667FM-12+000999999V0200101N015019999999N999999999-00081-00361099521ADDMA1999999099401MD1310181+9999REMSYN04801001 46/// /0115 11008 21036 39940 49952 53018=
0187010010999992015011615004+70933-008667FM-12+000999999V0200101N015019999999N009000199-00101-00431099581ADDAY121021AY221021GA1071+004501071GE19MSL   +99999+99999GF107991071999004501999999MA1999999099461MD1310211+9999MW1101REMSYN06001001 41459 70115 11010 21043 39946 49958 53021 71022 876//=
0089010010999992015011616004+70933-008667FM-12+000999999V0200101N015019999999N999999999-00101-00381099651ADDMA1999999099531MD1310211+9999REMSYN04801001 46/// /0115 11010 21038 39953 49965 53021=
0089010010999992015011617004+70933-008667FM-12+000999999V0200101N013019999999N999999999-00081-00341099701ADDMA1999999099581MD1210181+9999REMSYN04801001 46/// /0113 11008 21034 39958 49970 52018=
0247010010999992015011618004+70933-008667FM-12+000999999V0200101N011019999999N003000199-00091-00261099761ADDAA112000021AY171021AY221021GA1081+004501071GE19MSL   +99999+99999GF108991081999004501999999KA1120M+00141MA1999999099641MD1310181+9999MW1361OD139902301999REMSYN08201001 11430 80111 11009 21026 39964 49976 53018 69902 73672 886// 333 10014 91123=
0089010010999992015011619004+70933-008667FM-12+000999999V0200101N013019999999N999999999-00101-00341099781ADDMA1999999099661MD1310131+9999REMSYN04801001 46/// /0113 11010 21034 39966 49978 53013=
0089010010999992015011620004+70933-008667FM-12+000999999V0200201N009019999999N999999999-00131-00411099851ADDMA1999999099731MD1310151+9999REMSYN04801001 46/// /0209 11013 21041 39973 49985 53015=
0089010010999992015011621004+70933-008667FM-12+000999999V0200101N016019999999N999999999-00121-00581099881ADDMA1999999099761MD1310121+9999REMSYN04801001 46/// /0116 11012 21058 39976 49988 53012=
0089010010999992015011622004+70933-008667FM-12+000999999V0200101N015019999999N999999999-00161-00621099991ADDMA1999999099871MD1310221+9999REMSYN04801001 46/// /0115 11016 21062 39987 49999 53022=
0089010010999992015011623004+70933-008667FM-12+000999999V0200201N011019999999N999999999-00221-00771100111ADDMA1999999099991MD1310261+9999REMSYN04801001 46/// /0211 11022 21077 39999 40011 53026=
0228010010999992015011700004+70933-008667FM-12+000999999V0200101N014019999999N015000199-00251-00581100151ADDAA106000091AY131021AY211021GA1031+008001061GE19MSL   +99999+99999GF103991031999008001999999MA1999999100031MD1110271+9999MW1021OD139902201999REMSYN07601001 11565 30114 11025 21058 30003 40015 51027 60001 70231 83500 333 91122=
0089010010999992015011701004+70933-008667FM-12+000999999V0200101N014019999999N999999999-00281-00531100241ADDMA1999999100121MD1310241+9999REMSYN04801001 46/// /0114 11028 21053 30012 40024 53024=
0089010010999992015011702004+70933-008667FM-12+000999999V0200201N011019999999N999999999-00271-00801100331ADDMA1999999100211MD1310221+9999REMSYN04801001 46/// /0211 11027 21080 30021 40033 53022=
0089010010999992015011703004+70933-008667FM-12+000999999V0200101N011019999999N999999999-00281-00931100381ADDMA1999999100261MD1310241+9999REMSYN04801001 46/// /0111 11028 21093 30026 40038 53024=
0089010010999992015011704004+70933-008667FM-12+000999999V0200201N011019999999N999999999-00301-00941100431ADDMA1999999100311MD1310201+9999REMSYN04801001 46/// /0211 11030 21094 30031 40043 53020=
0089010010999992015011705004+70933-008667FM-12+000999999V0200201N010019999999N999999999-00361-00791100491ADDMA1999999100371MD1310161+9999REMSYN04801001 46/// /0210 11036 21079 30037 40049 53016=
0293010010999992015011706004+70933-008667FM-12+000999999V0200201N010019999999N020000199-00341-01021100571ADDAA112000091AA224000021AJ199991999999999AY111021AY201021GA1041+008001061GE19MSL   +99999+99999GF104991041999008001999999IA1229KA1240N-00431MA1999999100451MD1310181+9999MW1021OD139901901999REMSYN09401001 11570 40210 11034 21102 30045 40057 53018 60002 70210 84500 333 21043 46999 79999 91119=
0089010010999992015011707004+70933-008667FM-12+000999999V0200401N011019999999N999999999-00341-01071100621ADDMA1999999100501MD1310181+9999REMSYN04801001 46/// /0411 11034 21107 30050 40062 53018=
0089010010999992015011708004+70933-008667FM-12+000999999V0200201N009019999999N999999999-00291-00801100671ADDMA1999999100551MD1110181+9999REMSYN04801001 46/// /0209 11029 21080 30055 40067 51018=
0187010010999992015011709004+70933-008667FM-12+000999999V0203601N007019999999N005000199-00351-00601100751ADDAY171021AY241021GA1071+004501071GE19MSL   +99999+99999GF107991071999004501999999MA1999999100631MD1310191+9999MW1701REMSYN06001001 41450 73607 11035 21060 30063 40075 53019 77074 876//=
0089010010999992015011710004+70933-008667FM-12+000999999V0200201N008019999999N999999999-00311-00891100811ADDMA1999999100691MD1310191+9999REMSYN04801001 46/// /0208 11031 21089 30069 40081 53019=
0089010010999992015011711004+70933-008667FM-12+000999999V0200201N008019999999N999999999-00301-00931100891ADDMA1999999100771MD1210221+9999REMSYN04801001 46/// /0208 11030 21093 30077 40089 52022=
0248010010999992015011712004+70933-008667FM-12+000999999V0203601N008019999999N020000199-00291-00931100941ADDAA106000021AY171021AY221021GA1051+012501061GE19MSL   +99999+99999GF105991051999012501999999MA1999999100821MD1210191+9999MW1021OD139901801999SA1+0091REMSYN08801001 11670 53608 11029 21093 30082 40094 52019 69901 70272 85500 222// 00009 333 91118=
0089010010999992015011713004+70933-008667FM-12+000999999V0200201N011019999999N999999999-00331-01161100991ADDMA1999999100871MD1210171+9999REMSYN04801001 46/// /0211 11033 21116 30087 40099 52017=
0089010010999992015011714004+70933-008667FM-12+000999999V0200201N010019999999N999999999-00441-00741101071ADDMA1999999100951MD1310181+9999REMSYN04801001 46/// /0210 11044 21074 30095 40107 53018=
0187010010999992015011715004+70933-008667FM-12+000999999V0200101N007019999999N020000199-00371-00901101161ADDAY171021AY221021GA1071+008001081GE19MSL   +99999+99999GF107991071999008001999999MA1999999101041MD1310221+9999MW1031REMSYN06001001 41570 70107 11037 21090 30104 40116 53022 70372 878//=
0089010010999992015011716004+70933-008667FM-12+000999999V0200201N007019999999N999999999-00381-00881101201ADDMA1999999101081MD1210221+9999REMSYN04801001 46/// /0207 11038 21088 30108 40120 52022=
0089010010999992015011717004+70933-008667FM-12+000999999V0203601N007019999999N999999999-00371-00801101271ADDMA1999999101151MD1310211+9999REMSYN04801001 46/// /3607 11037 21080 30115 40127 53021=
0247010010999992015011718004+70933-008667FM-12+000999999V0200101N008019999999N030000199-00411-00671101351ADDAA112000131AY171021AY221021GA1041+012501061GE19MSL   +99999+99999GF104991041999012501999999KA1120M-00281MA1999999101231MD1310191+9999MW1771OD139901501999REMSYN08201001 11680 40108 11041 21067 30123 40135 53019 69912 77772 84500 333 11028 91115=
0089010010999992015011719004+70933-008667FM-12+000999999V0200201N008019999999N999999999-00351-00921101401ADDMA1999999101281MD1210201+9999REMSYN04801001 46/// /0208 11035 21092 30128 40140 52020=
0089010010999992015011720004+70933-008667FM-12+000999999V0200101N006019999999N999999999-00351-00971101491ADDMA1999999101371MD1310221+9999REMSYN04801001 46/// /0106 11035 21097 30137 40149 53022=
0089010010999992015011721004+70933-008667FM-12+000999999V0203601N008019999999N999999999-00381-00701101571ADDMA1999999101451MD1310221+9999REMSYN04801001 46/// /3608 11038 21070 30145 40157 53022=
0089010010999992015011722004+70933-008667FM-12+000999999V0200101N007019999999N999999999-00381-00711101641ADDMA1999999101521MD1210241+9999REMSYN04801001 46/// /0107 11038 21071 30152 40164 52024=
0089010010999992015011723004+70933-008667FM-12+000999999V0203501N006019999999N999999999-00351-00591101721ADDMA1999999101601MD1210231+9999REMSYN04801001 46/// /3506 11035 21059 30160 40172 52023=
0228010010999992015011800004+70933-008667FM-12+000999999V0203501N007019999999N020000199-00301-00671101761ADDAA106000021AY171021AY221021GA1081+012501061GE19MSL   +99999+99999GF108991081999012501999999MA1999999101641MD1110191+9999MW1021OD139901301999REMSYN07601001 11670 83507 11030 21067 30164 40176 51019 69901 70272 885// 333 91113=
0089010010999992015011801004+70933-008667FM-12+000999999V0200101N007019999999N999999999-00341-00661101841ADDMA1999999101721MD1310201+9999REMSYN04801001 46/// /0107 11034 21066 30172 40184 53020=
0089010010999992015011802004+70933-008667FM-12+000999999V0203601N006019999999N999999999-00341-00771101931ADDMA1999999101811MD1310201+9999REMSYN04801001 46/// /3606 11034 21077 30181 40193 53020=
0089010010999992015011803004+70933-008667FM-12+000999999V0200101N006019999999N999999999-00301-00941102001ADDMA1999999101881MD1310241+9999REMSYN04801001 46/// /0106 11030 21094 30188 40200 53024=
0089010010999992015011804004+70933-008667FM-12+000999999V0203601N006019999999N999999999-00301-00891102051ADDMA1999999101931MD1210211+9999REMSYN04801001 46/// /3606 11030 21089 30193 40205 52021=
0089010010999992015011805004+70933-008667FM-12+000999999V0203501N006019999999N999999999-00311-00891102071ADDMA1999999101951MD1110141+9999REMSYN04801001 46/// /3506 11031 21089 30195 40207 51014=
0293010010999992015011806004+70933-008667FM-12+000999999V0203501N005019999999N030000199-00331-00811102141ADDAA112000021AA224000131AJ199991999999999AY121021AY211021GA1031+012501061GE19MSL   +99999+99999GF103991031999012501999999IA1179KA1240N-00421MA1999999102021MD1310141+9999MW1021OD139901301999REMSYN09401001 11680 33505 11033 21081 30202 40214 53014 69902 70221 83500 333 21042 40999 70001 91113=
0089010010999992015011807004+70933-008667FM-12+000999999V0203401N005019999999N999999999-00311-00821102211ADDMA1999999102091MD1310161+9999REMSYN04801001 46/// /3405 11031 21082 30209 40221 53016=
0089010010999992015011808004+70933-008667FM-12+000999999V0203401N005019999999N999999999-00311-00811102281ADDMA1999999102161MD1210211+9999REMSYN04801001 46/// /3405 11031 21081 30216 40228 52021=
0187010010999992015011809004+70933-008667FM-12+000999999V0203301N006019999999N030000199-00331-00821102301ADDAY111021AY201021GA1021+012501061GE19MSL   +99999+99999GF102991021999012501999999MA1999999102181MD1210171+9999MW1021REMSYN06001001 41680 23306 11033 21082 30218 40230 52017 70210 82500=
0089010010999992015011810004+70933-008667FM-12+000999999V0203601N002019999999N999999999-00401-00861102381ADDMA1999999102261MD1310181+9999REMSYN04801001 46/// /3602 11040 21086 30226 40238 53018=
0089010010999992015011811004+70933-008667FM-12+000999999V0200101N003019999999N999999999-00401-00791102391ADDMA1999999102271MD1110121+9999REMSYN04801001 46/// /0103 11040 21079 30227 40239 51012=
0248010010999992015011812004+70933-008667FM-12+000999999V0203601N004019999999N030000199-00331-00691102411ADDAA106000021AY171021AY211021GA1051+012501061GE19MSL   +99999+99999GF105991051999012501999999MA1999999102291MD1110111+9999MW1771OD139900801999SA1+0071REMSYN08801001 11680 53604 11033 21069 30229 40241 51011 69901 77771 85500 222// 00007 333 91108=
0089010010999992015011813004+70933-008667FM-12+000999999V0203101N001019999999N999999999-00441-00781102421ADDMA1999999102301MD1210031+9999REMSYN04801001 46/// /3101 11044 21078 30230 40242 52003=
0089010010999992015011814004+70933-008667FM-12+000999999V0203401N003019999999N999999999-00481-00941102461ADDMA1999999102341MD1310071+9999REMSYN04801001 46/// /3403 11048 21094 30234 40246 53007=
0187010010999992015011815004+70933-008667FM-12+000999999V0203601N004019999999N030000199-00371-00601102491ADDAY171021AY211021GA1021+012501061GE19MSL   +99999+99999GF102991021999012501999999MA1999999102371MD1310081+9999MW1021REMSYN06001001 41680 23604 11037 21060 30237 40249 53008 70271 82500=
0089010010999992015011816004+70933-008667FM-12+000999999V0203401N005019999999N999999999-00391-00631102471ADDMA1999999102351MD1990061+9999REMSYN04801001 46/// /3405 11039 21063 30235 40247 50006=
0089010010999992015011817004+70933-008667FM-12+000999999V0203601N004019999999N999999999-00361-00681102451ADDMA1999999102331MD1810021+9999REMSYN04801001 46/// /3604 11036 21068 30233 40245 58002=
0247010010999992015011818004+70933-008667FM-12+000999999V0203001N002019999999N030000199-00531-00931102421ADDAA112000021AY171021AY211021GA1021+008001071GE19MSL   +99999+99999GF102991021999008001999999KA1120M-00301MA1999999102301MD1810071+9999MW1701OD139900601999REMSYN08201001 11580 23002 11053 21093 30230 40242 58007 69902 77071 82600 333 11030 91106=
0089010010999992015011819004+70933-008667FM-12+000999999V0202401N001019999999N999999999-00471-00811102401ADDMA1999999102281MD1610081+9999REMSYN04801001 46/// /2401 11047 21081 30228 40240 56008=
0089010010999992015011820004+70933-008667FM-12+000999999V0202601N002019999999N999999999-00451-00781102411ADDMA1999999102291MD1610041+9999REMSYN04801001 46/// /2602 11045 21078 30229 40241 56004=
0089010010999992015011821004+70933-008667FM-12+000999999V0202501N002019999999N999999999-00421-00731102401ADDMA1999999102281MD1710031+9999REMSYN04801001 46/// /2502 11042 21073 30228 40240 57003=
0089010010999992015011822004+70933-008667FM-12+000999999V0202401N002019999999N999999999-00421-00781102351ADDMA1999999102231MD1810051+9999REMSYN04801001 46/// /2402 11042 21078 30223 40235 58005=
0089010010999992015011823004+70933-008667FM-12+000999999V0202601N004019999999N999999999-00411-00781102331ADDMA1999999102211MD1810081+9999REMSYN04801001 46/// /2604 11041 21078 30221 40233 58008=
0158010010999992015011900004+70933-008667FM-12+000999999V0202601N004019999999N030000199-00411-00801102291ADDAA106000021AY171021AY201021MA1999999102171MD1710101+9999MW1011OD139900601999REMSYN07001001 11980 02604 11041 21080 30217 40229 57010 69901 70170 333 91106=
0089010010999992015011901004+70933-008667FM-12+000999999V0202501N002019999999N999999999-00431-00821102251ADDMA1999999102131MD1710101+9999REMSYN04801001 46/// /2502 11043 21082 30213 40225 57010=
0089010010999992015011902004+70933-008667FM-12+000999999V0202701N004019999999N999999999-00431-00811102221ADDMA1999999102101MD1610111+9999REMSYN04801001 46/// /2704 11043 21081 30210 40222 56011=
0089010010999992015011903004+70933-008667FM-12+000999999V0202701N002019999999N999999999-00451-00871102141ADDMA1999999102021MD1810151+9999REMSYN04801001 46/// /2702 11045 21087 30202 40214 58015=
0089010010999992015011904004+70933-008667FM-12+000999999V0202501N002019999999N999999999-00451-00831102071ADDMA1999999101951MD1810191+9999REMSYN04801001 46/// /2502 11045 21083 30195 40207 58019=
0089010010999992015011905004+70933-008667FM-12+000999999V0202501N002019999999N999999999-00481-00851101981ADDMA1999999101861MD1810231+9999REMSYN04801001 46/// /2502 11048 21085 30186 40198 58023=
0223010010999992015011906004+70933-008667FM-12+000999999V0202101N002019999999N030000199-00431-00781101901ADDAA112000021AA224000021AJ199991999999999AY101021AY201021IA1179KA1240N-00531MA1999999101781MD1810241+9999MW1021OD139900601999REMSYN08801001 11980 02102 11043 21078 30178 40190 58024 69902 70200 333 21053 40999 79999 91106=
0089010010999992015011907004+70933-008667FM-12+000999999V0202301N003019999999N999999999-00411-00801101851ADDMA1999999101731MD1710221+9999REMSYN04801001 46/// /2303 11041 21080 30173 40185 57022=
0089010010999992015011908004+70933-008667FM-12+000999999V0202101N003019999999N999999999-00361-00761101821ADDMA1999999101701MD1610171+9999REMSYN04801001 46/// /2103 11036 21076 30170 40182 56017=
0187010010999992015011909004+70933-008667FM-12+000999999V0202101N003019999999N030000199-00291-00691101801ADDAY121021AY201021GA1061+008001061GE19MSL   +99999+99999GF106991061999008001999999MA1999999101681MD1610101+9999MW1031REMSYN06001001 41580 62103 11029 21069 30168 40180 56010 70320 86500=
0089010010999992015011910004+70933-008667FM-12+000999999V0201501N002019999999N999999999-00241-00591101761ADDMA1999999101641MD1710091+9999REMSYN04801001 46/// /1502 11024 21059 30164 40176 57009=
0089010010999992015011911004+70933-008667FM-12+000999999V0200901N004019999999N999999999-00061-00371101701ADDMA1999999101581MD1810121+9999REMSYN04801001 46/// /0904 11006 21037 30158 40170 58012=
0280010010999992015011912004+70933-008667FM-12+000999999V0203301N001019999999N030000199-00061-00341101611ADDAA106000091AY121021AY201021GA1051+008001081GA2999+999999031GA3999+999999001GE19MSL   +99999+99999GF106991051999008001999999MA1999999101491MD1810191+9999MW1021OD139900601999SA1+0091REMSYN08801001 11580 63301 11006 21034 30149 40161 58019 60001 70220 85831 222// 00009 333 91106=
0089010010999992015011913004+70933-008667FM-12+000999999V0202201N002019999999N999999999+00001-00241101531ADDMA1999999101411MD1810231+9999REMSYN04801001 46/// /2202 10000 21024 30141 40153 58023=
0089010010999992015011914004+70933-008667FM-12+000999999V0202401N002019999999N999999999-00051-00291101451ADDMA1999999101331MD1710251+9999REMSYN04801001 46/// /2402 11005 21029 30133 40145 57025=
0203010010999992015011915004+70933-008667FM-12+000999999V0202401N001019999999N030000199-00061-00311101391ADDAY121021AY201021GA1051+008001061GA2999+999999001GE19MSL   +99999+99999GF106991051999008001999999MA1999999101271MD1710231+9999MW1021REMSYN06001001 41580 62401 11006 21031 30127 40139 57023 70220 85501=
0089010010999992015011916004+70933-008667FM-12+000999999V0201801N007019999999N999999999+00061-00131101321ADDMA1999999101201MD1710211+9999REMSYN04801001 46/// /1807 10006 21013 30120 40132 57021=
0089010010999992015011917004+70933-008667FM-12+000999999V0201801N006019999999N999999999+00091-00121101261ADDMA1999999101141MD1710181+9999REMSYN04801001 46/// /1806 10009 21012 30114 40126 57018=
0247010010999992015011918004+70933-008667FM-12+000999999V0202201N003019999999N020000199+00001-00181101241ADDAA112000091AY121021AY201021GA1031+008001071GE19MSL   +99999+99999GF103991031999008001999999KA1120M+00101MA1999999101121MD1610141+9999MW1021OD139900901999REMSYN08201001 11570 32203 10000 21018 30112 40124 56014 60002 70220 83600 333 10010 91109=
0089010010999992015011919004+70933-008667FM-12+000999999V0202101N003019999999N999999999-00041-00211101211ADDMA1999999101091MD1710101+9999REMSYN04801001 46/// /2103 11004 21021 30109 40121 57010=
0089010010999992015011920004+70933-008667FM-12+000999999V0201601N004019999999N999999999+00091-00071101171ADDMA1999999101051MD1710091+9999REMSYN04801001 46/// /1604 10009 21007 30105 40117 57009=
0089010010999992015011921004+70933-008667FM-12+000999999V0201601N004019999999N999999999+00111-00101101121ADDMA1999999101001MD1710121+9999REMSYN04801001 46/// /1604 10011 21010 30100 40112 57012=
0089010010999992015011922004+70933-008667FM-12+000999999V0201201N005019999999N999999999+00091-00091101081ADDMA1999999100961MD1710131+9999REMSYN04801001 46/// /1205 10009 21009 30096 40108 57013=
0089010010999992015011923004+70933-008667FM-12+000999999V0201401N005019999999N999999999+00131-00201101041ADDMA1999999100921MD1710131+9999REMSYN04801001 46/// /1405 10013 21020 30092 40104 57013=
0244010010999992015012000004+70933-008667FM-12+000999999V0201101N003019999999N030000199+00051-00231100991ADDAA106000091AY111021AY201021GA1021+008001071GA2999+999999031GE19MSL   +99999+99999GF103991021999008001999999MA1999999100871MD1810131+9999MW1021OD139900701999REMSYN07601001 11580 31103 10005 21023 30087 40099 58013 60001 70210 82630 333 91107=
0089010010999992015012001004+70933-008667FM-12+000999999V0201001N004019999999N999999999+00111-00121100941ADDMA1999999100821MD1710141+9999REMSYN04801001 46/// /1004 10011 21012 30082 40094 57014=
0089010010999992015012002004+70933-008667FM-12+000999999V0201401N006019999999N999999999+00201-00041100891ADDMA1999999100771MD1710161+9999REMSYN04801001 46/// /1406 10020 21004 30077 40089 57016=
0089010010999992015012003004+70933-008667FM-12+000999999V0201501N006019999999N999999999+00211-00011100801ADDMA1999999100681MD1810191+9999REMSYN04801001 46/// /1506 10021 21001 30068 40080 58019=
0089010010999992015012004004+70933-008667FM-12+000999999V0201401N006019999999N999999999+00221+00041100751ADDMA1999999100631MD1710191+9999REMSYN04801001 46/// /1406 10022 20004 30063 40075 57019=
0089010010999992015012005004+70933-008667FM-12+000999999V0201501N002019999999N999999999+00191+00041100701ADDMA1999999100581MD1710181+9999REMSYN04801001 46/// /1502 10019 20004 30058 40070 57018=
0293010010999992015012006004+70933-008667FM-12+000999999V0201301N005019999999N020000199+00231+00021100671ADDAA112000531AA224000531AJ199991999999999AY171021AY221021GA1071+008001071GE19MSL   +99999+99999GF107991071999008001999999IA1179KA1240N-00081MA1999999100551MD1710141+9999MW1021OD139901001999REMSYN09401001 11570 71305 10023 20002 30055 40067 57014 69952 70272 876// 333 21008 40999 70005 91110=
0089010010999992015012007004+70933-008667FM-12+000999999V0201501N004019999999N999999999+00181+00001100651ADDMA1999999100531MD1710101+9999REMSYN04801001 46/// /1504 10018 21000 30053 40065 57010=
0089010010999992015012008004+70933-008667FM-12+000999999V0201301N004019999999N999999999+00201+00001100611ADDMA1999999100491MD1710101+9999REMSYN04801001 46/// /1304 10020 20000 30049 40061 57010=
0187010010999992015012009004+70933-008667FM-12+000999999V0200801N005019999999N020000199+00211+00001100541ADDAY181021AY211021GA1071+008001061GE19MSL   +99999+99999GF107991071999008001999999MA1999999100421MD1810131+9999MW1021REMSYN06001001 41570 70805 10021 20000 30042 40054 58013 70281 875//=
0089010010999992015012010004+70933-008667FM-12+000999999V0200901N003019999999N999999999+00181+00031100531ADDMA1999999100411MD1610111+9999REMSYN04801001 46/// /0903 10018 20003 30041 40053 56011=
0089010010999992015012011004+70933-008667FM-12+000999999V0201601N003019999999N999999999+00231+00061100501ADDMA1999999100381MD1610111+9999REMSYN04801001 46/// /1603 10023 20006 30038 40050 56011=
0248010010999992015012012004+70933-008667FM-12+000999999V0202001N004019999999N015000199+00181+00031100491ADDAA106000131AY181021AY251021GA1071+004501071GE19MSL   +99999+99999GF107991071999004501999999MA1999999100371MD1810051+9999MW1501OD139901201999SA1+0091REMSYN08801001 11465 72004 10018 20003 30037 40049 58005 69911 75085 876// 222// 00009 333 91112=
0089010010999992015012013004+70933-008667FM-12+000999999V0202101N004019999999N999999999+00181+00051100491ADDMA1999999100371MD1510041+9999REMSYN04801001 46/// /2104 10018 20005 30037 40049 55004=
0089010010999992015012014004+70933-008667FM-12+000999999V0202001N005019999999N999999999+00161+00051100541ADDMA1999999100421MD1310051+9999REMSYN04801001 46/// /2005 10016 20005 30042 40054 53005=
0187010010999992015012015004+70933-008667FM-12+000999999V0201801N007019999999N009000199+00121+00021100571ADDAY171021AY251021GA1071+002501071GE19MSL   +99999+99999GF107991071999002501999999MA1999999100451MD1210081+9999MW1681REMSYN06001001 41359 71807 10012 20002 30045 40057 52008 76875 876//=
0089010010999992015012016004+70933-008667FM-12+000999999V0202001N003019999999N999999999+00111+00021100581ADDMA1999999100461MD1110091+9999REMSYN04801001 46/// /2003 10011 20002 30046 40058 51009=
0089010010999992015012017004+70933-008667FM-12+000999999V0201201N005019999999N999999999+00171+00021100581ADDMA1999999100461MD1210031+9999REMSYN04801001 46/// /1205 10017 20002 30046 40058 52003=
0266010010999992015012018004+70933-008667FM-12+000999999V0201401N005019999999N010000199+00201-00031100581ADDAA112001031AY151021AY221021GA1051+004501071GE19MSL   +99999+99999GF105991051999004501999999KA1120M+00281MA1999999100461MD1290014+9999MW1501OD139901001999REMSYN08201001 11460 51405 10020 21003 30046 40058 54001 60012 75052 85600 333 10028 91110=EQDQ01.1    3APC3  
0089010010999992015012019004+70933-008667FM-12+000999999V0200801N006019999999N999999999+00191+00001100551ADDMA1999999100431MD1810031+9999REMSYN04801001 46/// /0806 10019 21000 30043 40055 58003=
0089010010999992015012020004+70933-008667FM-12+000999999V0200901N006019999999N999999999+00181+00041100591ADDMA1999999100471MD1310011+9999REMSYN04801001 46/// /0906 10018 20004 30047 40059 53001=
0089010010999992015012021004+70933-008667FM-12+000999999V0202301N003019999999N999999999+00141+00011100621ADDMA1999999100501MD1310041+9999REMSYN04801001 46/// /2303 10014 20001 30050 40062 53004=
0089010010999992015012022004+70933-008667FM-12+000999999V0201701N004019999999N999999999+00211+00031100631ADDMA1999999100511MD1210081+9999REMSYN04801001 46/// /1704 10021 20003 30051 40063 52008=
0089010010999992015012023004+70933-008667FM-12+000999999V0201401N006019999999N999999999+00221+00061100631ADDMA1999999100511MD1990031+9999REMSYN04801001 46/// /1406 10022 20006 30051 40063 50003=
0228010010999992015012100004+70933-008667FM-12+000999999V0201501N007019999999N010000199+00251+00081100641ADDAA106002031AY171021AY251021GA1061+004501071GE19MSL   +99999+99999GF106991061999004501999999MA1999999100521MD1210021+9999MW1021OD139901301999REMSYN07601001 11460 61507 10025 20008 30052 40064 52002 60021 70275 86600 333 91113=
0089010010999992015012101004+70933-008667FM-12+000999999V0201401N007019999999N999999999+00221+00071100631ADDMA1999999100511MD1410001+9999REMSYN04801001 46/// /1407 10022 20007 30051 40063 54000=
0108010010999992015012102004+70933-008667FM-12+000999999V0201501N008019999999N999999999+00271+00091100621ADDMA1999999100501MD1790014+9999REMSYN04801001 46/// /1508 10027 20009 30050 40062 54001=EQDQ01.1    3APC3  
0089010010999992015012103004+70933-008667FM-12+000999999V0201601N007019999999N999999999+00241+00111100621ADDMA1999999100501MD1710031+9999REMSYN04801001 46/// /1607 10024 20011 30050 40062 57003=
0089010010999992015012104004+70933-008667FM-12+000999999V0201601N009019999999N999999999+00271+00141100611ADDMA1999999100491MD1710021+9999REMSYN04801001 46/// /1609 10027 20014 30049 40061 57002=
0089010010999992015012105004+70933-008667FM-12+000999999V0201801N010019999999N999999999+00251+00141100621ADDMA1999999100501MD1410001+9999REMSYN04801001 46/// /1810 10025 20014 30050 40062 54000=
0293010010999992015012106004+70933-008667FM-12+000999999V0201901N010019999999N005000199+00231+00101100641ADDAA112002031AA224003131AJ199991999999999AY161021AY251021GA1081+002501071GE19MSL   +99999+99999GF108991081999002501999999IA1269KA1240N+00111MA1999999100521MD1210021+9999MW1631OD139901401999REMSYN09401001 11350 81910 10023 20010 30052 40064 52002 60022 76365 886// 333 20011 42999 70031 91114=
0089010010999992015012107004+70933-008667FM-12+000999999V0201701N010019999999N999999999+00241+00131100661ADDMA1999999100541MD1210051+9999REMSYN04801001 46/// /1710 10024 20013 30054 40066 52005=
0089010010999992015012108004+70933-008667FM-12+000999999V0201701N010019999999N999999999+00241+00141100711ADDMA1999999100591MD1310101+9999REMSYN04801001 46/// /1710 10024 20014 30059 40071 53010=
0187010010999992015012109004+70933-008667FM-12+000999999V0201801N011019999999N004000199+00241+00141100751ADDAY161021AY251021GA1081+002501071GE19MSL   +99999+99999GF108991081999002501999999MA1999999100631MD1310121+9999MW1101REMSYN06001001 41340 81811 10024 20014 30063 40075 53012 71065 886//=
0089010010999992015012110004+70933-008667FM-12+000999999V0201801N011019999999N999999999+00231+00131100781ADDMA1999999100661MD1210121+9999REMSYN04801001 46/// /1811 10023 20013 30066 40078 52012=
0089010010999992015012111004+70933-008667FM-12+000999999V0201801N011019999999N999999999+00221+00131100811ADDMA1999999100691MD1210101+9999REMSYN04801001 46/// /1811 10022 20013 30069 40081 52010=
0248010010999992015012112004+70933-008667FM-12+000999999V0201801N010019999999N001200199+00201+00131100811ADDAA106001031AY161021AY241021GA1081+001501071GE19MSL   +99999+99999GF108991081999001501999999MA1999999100691MD1210061+9999MW1601OD139901401999SA1+0101REMSYN08801001 11212 81810 10020 20013 30069 40081 52006 60011 76064 886// 222// 00010 333 91114=
0089010010999992015012113004+70933-008667FM-12+000999999V0201901N009019999999N999999999+00191+00131100831ADDMA1999999100711MD1210051+9999REMSYN04801001 46/// /1909 10019 20013 30071 40083 52005=
0089010010999992015012114004+70933-008667FM-12+000999999V0202001N008019999999N999999999+00181+00121100811ADDMA1999999100691MD1410001+9999REMSYN04801001 46/// /2008 10018 20012 30069 40081 54000=
0187010010999992015012115004+70933-008667FM-12+000999999V0202001N008019999999N001500199+00171+00111100821ADDAY161021AY251021GA1081+001501071GE19MSL   +99999+99999GF108991081999001501999999MA1999999100701MD1310011+9999MW1501REMSYN06001001 41215 82008 10017 20011 30070 40082 53001 75065 886//=
0089010010999992015012116004+70933-008667FM-12+000999999V0202001N009019999999N999999999+00181+00121100841ADDMA1999999100721MD1310011+9999REMSYN04801001 46/// /2009 10018 20012 30072 40084 53001=
0089010010999992015012117004+70933-008667FM-12+000999999V0202101N008019999999N999999999+00171+00121100871ADDMA1999999100751MD1310061+9999REMSYN04801001 46/// /2108 10017 20012 30075 40087 53006=
